:020000040000fa
:080000000001040000000000f3
:020000040000fa
:0400080018030000d9
:020000040000fa
:04000c0018030000d5
:020000040000fa
:0400100018030000d1
:020000040000fa
:0400140018030000cd
:020000040000fa
:0400180018030000c9
:020000040000fa
:04001c0018030000c5
:020000040000fa
:0400200018030000c1
:020000040000fa
:0400240018030000bd
:020000040000fa
:0400280018030000b9
:020000040000fa
:04002c0018030000b5
:020000040000fa
:0400300018030000b1
:020000040000fa
:0400340018030000ad
:020000040000fa
:0400380018030000a9
:020000040000fa
:04003c0018030000a5
:020000040000fa
:0400400018030000a1
:020000040000fa
:04004400180300009d
:020000040000fa
:040048001803000099
:020000040000fa
:04004c001803000095
:020000040000fa
:040050001803000091
:020000040000fa
:0400540004020000a2
:020000040000fa
:040058001803000089
:020000040000fa
:04005c001803000085
:020000040000fa
:040060001803000081
:020000040000fa
:04006400180300007d
:020000040000fa
:040068001803000079
:020000040000fa
:04006c001803000075
:020000040000fa
:040070001803000071
:020000040000fa
:04007400bc020000ca
:020000040000fa
:040078001803000069
:020000040000fa
:04007c001803000065
:020000040000fa
:040080001803000061
:020000040000fa
:04008400180300005d
:020000040000fa
:040088001803000059
:020000040000fa
:04008c001803000055
:020000040000fa
:040090001803000051
:020000040000fa
:04009400180300004d
:020000040000fa
:040098001803000049
:020000040000fa
:04009c001803000045
:020000040000fa
:0400a0001802000042
:020000040000fa
:0400a400180300003d
:020000040000fa
:0400a8001803000039
:020000040000fa
:0400ac001803000035
:020000040000fa
:0400b0001803000031
:020000040000fa
:0400b400180300002d
:020000040000fa
:0400b8001803000029
:020000040000fa
:0400bc001803000025
:020000040000fa
:0400c0001803000021
:020000040000fa
:0400c400180300001d
:020000040000fa
:0400c8001803000019
:020000040000fa
:0400cc001803000015
:020000040000fa
:0400d0001803000011
:020000040000fa
:0400d400180300000d
:020000040000fa
:0400d8001803000009
:020000040000fa
:0400dc001803000005
:020000040000fa
:0400e0001803000001
:020000040000fa
:0400e40018030000fd
:020000040000fa
:0400e80018030000f9
:020000040000fa
:0400ec0018030000f5
:020000040000fa
:0400f00018030000f1
:020000040000fa
:0400f40018030000ed
:020000040000fa
:0400f80018030000e9
:020000040000fa
:0400fc0018030000e5
:020000040000fa
:0401000018030000e0
:020000040000fa
:0401040018030000dc
:020000040000fa
:0401080018030000d8
:020000040000fa
:04010c0018030000d4
:020000040000fa
:0401100018030000d0
:020000040000fa
:0401140018030000cc
:020000040000fa
:0401180018030000c8
:020000040000fa
:04011c0018030000c4
:020000040000fa
:0401200018030000c0
:020000040000fa
:0401240018030000bc
:020000040000fa
:0401280018030000b8
:020000040000fa
:04012c0018030000b4
:020000040000fa
:0401300018030000b0
:020000040000fa
:0401340018030000ac
:020000040000fa
:0401380018030000a8
:020000040000fa
:04013c0018030000a4
:020000040000fa
:0401400018030000a0
:020000040000fa
:04014400180300009c
:020000040000fa
:040148001803000098
:020000040000fa
:04014c001803000094
:020000040000fa
:040150001803000090
:020000040000fa
:04015400180300008c
:020000040000fa
:040158001803000088
:020000040000fa
:04015c001803000084
:020000040000fa
:040160001803000080
:020000040000fa
:04016400180300007c
:020000040000fa
:040168001803000078
:020000040000fa
:04016c001803000074
:020000040000fa
:040170001803000070
:020000040000fa
:04017400180300006c
:020000040000fa
:040178001803000068
:020000040000fa
:04017c001803000064
:020000040000fa
:040180001803000060
:020000040000fa
:04018400180300005c
:020000040000fa
:040188001803000058
:020000040000fa
:04018c001803000054
:020000040000fa
:040190001803000050
:020000040000fa
:04019400180300004c
:020000040000fa
:040198001803000048
:020000040000fa
:04019c001803000044
:020000040000fa
:0401a0001803000040
:020000040000fa
:0401a400180300003c
:020000040000fa
:0401a8001803000038
:020000040000fa
:0401ac001803000034
:020000040000fa
:0401b0001803000030
:020000040000fa
:0401b400180300002c
:020000040000fa
:0401b8001803000028
:020000040000fa
:0401bc001803000024
:020000040000fa
:0401c0001803000020
:020000040000fa
:0401c400180300001c
:020000040000fa
:0401c8001803000018
:020000040000fa
:0401cc001803000014
:020000040000fa
:0401d0001803000010
:020000040000fa
:0401d400180300000c
:020000040000fa
:0401d8001803000008
:020000040000fa
:0401dc001803000004
:020000040000fa
:0401e0001803000000
:020000040000fa
:0401e40018030000fc
:020000040000fa
:0401e80018030000f8
:020000040000fa
:0401ec0018030000f4
:020000040000fa
:0401f00018030000f0
:020000040000fa
:0401f40018030000ec
:020000040000fa
:0401f80018030000e8
:020000040000fa
:0401fc0018030000e4
:020000040000fa
:100200004ff422000e7f24000e0188000000000041
:10021000000020000000e000020032000001200089
:100220002002880014000700240107000000e000fd
:1002300003003a00002021000100200002003700e6
:100240000000200001002000810f7000010032003a
:1002500014000700000020000000e000020032004f
:100260000000020000000000c411020000000000b5
:100270000040da000000fe004440a9008021200078
:100280000000e00003003200002020009001880000
:100290004440a800000006008a1f78008b1f7800e9
:1002a00000000600a1028800800478000000eb0036
:1002b0001f003700e284440054a0b4009905ba003e
:1002c000e284440054a0b4009906ba00e2844400d9
:1002d00054a0b4000006eb00476fde00fd07b2003b
:1002e000ae018800636ce10003003a00eaff0700fa
:1002f0000000eb000e003700606ce10008003a00df
:10030000004deb000a05e800020039003420ec0043
:100310000af0a0008b05e900f9ff3e000400370059
:100320006168e100010032000086eb000b0007006d
:1003300019c7ba001905ba000e04e00003003a001c
:100340000a00e000dbff3a0000000600fe07b200f2
:10035000ae0288008a047800f5ff37000cd0a300b5
:10036000e20f4d001c00390089027800354dba00bb
:100370000a05e800020039003420ec000af0a00071
:100380008b05e9000f003200254dba000a05e80090
:10039000020039003420ec000af0a0008b05e900cf
:1003a000080032000c00e0000600320015cdba0053
:1003b0000a05e800020039003420ec000af0a00031
:1003c0008b05e9008984e80054a0b4000b00e0002c
:1003d000e2ff3a00000006009902ba00055d7800cd
:1003e0008b05e900f7ff3200c82ade00055d7800c2
:1003f0008b05e900f3ff32000c00e000f1ff320052
:1004000019ddba00eeff3700801f78000200fa0005
:10041000f01c8000004f78001e00fb00e01c8800ec
:100420008960a9000080fa004f00780000400600b3
:100430003600f800809fbe00829fbe00849fbe00f1
:10044000869fbe000200fa00a01d8000004f7800c9
:100450001e4078000004e00002003a00d0c2b30061
:10046000004f78005040800081b32200810040009e
:100470009e4878000000e80050408800514080000d
:1004800080b32200008040008040eb0001487800eb
:10049000e0c3b3009e40780080cf500008003a00cf
:1004a00090f32200104078000004a2000004e00055
:1004b0000300320020002000580507002600370006
:1004c0001e407800ed4f500008003a0090f32200e3
:1004d000104078000004a2000004e0000300320095
:1004e00080b32200690507001b00370050c2b3002b
:1004f0009e40780080cf500017003a008080200096
:10050000104078000004e0001300320050408000ea
:100510008080e9000033220080804000808020003d
:100520000080400090407800e0c4b30080cf5000cd
:1005300009003a00024020008000eb0080b3220056
:10054000bc0007000000eb005040880080802000c5
:100550008040eb00014878008bc0a9000080fa00c1
:100560004f03be004f02be004f01be004f00be0051
:100570003600f900004006003600f800809fbe00fb
:10058000829fbe00849fbe00869fbe000000fa00ce
:100590002134800000002200008060000000e000a4
:1005a0000300320010002000da05070017003700b2
:1005b0002134800000002100008060000000e00085
:1005c0000300320020002000d20507000f00370092
:1005d0002134800000802000008060000000e000e6
:1005e0000300320030002000ca0507000700370072
:1005f0002134800000402000008060000000e00006
:100600000200320040002000c20507008426ef00ef
:100610008a60a9000080fa004f03be004f02be00ae
:100620004f01be004f00be003600f900004006003a
:100630000040da000000fe00889fbe0080047800c1
:10064000107a81000000e00004003a000e0007006c
:100650000084eb000000e00008003500187a8100fb
:100660000900e00005003200090044000600070010
:100670000000e00001003d000084eb00080078006d
:100680004f04be0000000600800078000100e0007a
:1006900003003a0000002000107a890000000500e5
:1006a0000080eb0002002000828f500002003e001c
:1006b000117a89000000eb00000006000000050030
:1006c000889fbe0000047800e17981000100e0000d
:1006d00002003200010078000d003700f17981003e
:1006e000e0f3220004003700910f5400250036008b
:1006f0000180e800910090000100e000faff3a005c
:1007000010003700920f54001e0036000280e800ef
:10071000100178000200e000faff3a0011017800b1
:10072000f1798100e0f3220004003700910f5400ba
:10073000140036000180e80091009000828f500084
:10074000faff3a00097a8100888f540001003100d5
:100750008804780009007800530007000000e000da
:1007600004003a00888f5400050032008904d1004b
:10077000f5ff37000918780055000700d2ff370051
:100780000000eb004f04be0000000600881f780048
:10079000630440000800a1008000eb00800f5400bb
:1007a00021003600e30f540001003e004800200005
:1007b00008007800c2ff07008000eb000000e000a6
:1007c0001900320090007800910178006481510096
:1007d000880f5100030031001101900002087800d9
:1007e000070037000881400002087800910190005e
:1007f000130198001001780011091400880878008e
:10080000100178000000eb000200e000040032005c
:10081000920190000300e000010032000280e80035
:10082000e07989008180e800010078004f047800b9
:10083000000006008001780002003700815978002e
:100840000201e9000200e000fcff3a00000006009f
:10085000020037000204e0000b0032008101780042
:100860000002780030417800b14f5100f9ff3200aa
:100870001000200014427800934f52000300310012
:100880000080eb00000006000000eb000000060006
:1008900000017800b1417800035978000304e000ba
:1008a000fcff3a0000000600800078000000eb002a
:1008b0000100e00005003400010078005eff070041
:1008c000e10f400001003a000000eb0000000600cc
:1008d0000000e0002f003200c0017800e38f5100db
:1008e0002c0036000308a3002a003a00f1798100a9
:1008f0000100e00002003200810f500004003100ce
:1009000011009800f0798900160037008200780005
:10091000110190000200e00002003200800f51003f
:10092000faff39001102780084824000850f5000e0
:1009300018003900808f520003003a0083084200fb
:1009400001007800070037000200e00003003200d9
:1009500083014000830f51000e00390012009800ff
:1009600090009800900090000100e0000900320023
:1009700010014000828f500006003a00c2f32200ae
:100980000009eb001001780011084100910090006f
:080990001100980000000600b0
:020000040000fa
:10099800312e0000576100007465000072200000cd
:1009a80020200000322e0000446100007461000025
:1009b800003300002e57000069460000692000003f
:1009c80020200000203400002e4d00006f7200002f
:1009d80065000000312e00004f4e0000202000006e
:1009e8002020000020200000322e00004f4600008a
:1009f80046000000332e000041750000746f0000af
:100a08002020000020200000342e00004261000059
:100a1800636b0000003100002e530000686f000077
:100a28007720000020200000203200002e4800001f
:100a38006964000065000000332e00004e2f00009e
:100a4800412000002020000020200000342e00005b
:100a580042610000636b0000003100002e5300006b
:100a6800686f000077200000322e0000436f0000fe
:100a78006e6e00006563000074000000332e0000f5
:100a8800436f00006e6e00003f2000002020000031
:100a9800342e000042610000636b0000003100004a
:100aa8002e530000657400007570000020200000bf
:100ab800203200002e4e00002f41000000330000bd
:100ac8002e4900006e6600006f2000002020000004
:100ad800203400002e420000616300006b0000001b
:100ae800312e00004e650000743100002020000007
:100af80020200000322e00004e65000074320000f5
:100b0800003300002e4e0000657400003320000002
:100b180020200000203400002e4200006163000005
:100b28006b000000312e0000566900006577000058
:100b3800203200002e4300006f6e00006e6500003a
:100b480063740000003300002e4e00002f410000a7
:100b58002020000020200000342e00004261000008
:100b6800636b00000020000020200000202000000f
:100b7800202000002020000020200000202000006d
:100b8800202000002000000057610000746500006c
:100b9800726900006e670000204500006e61000069
:100ba800626c00006564000000570000617400007a
:100bb8006572000020730000687500007420000052
:100bc800646f0000776e000021000000417500008e
:100bd800746f00002d7700006174000065720000da
:100be8003a2000004f4e00000041000075740000dc
:100bf8006f2d00007761000074650000723a0000f4
:100c0800204f00004646000000540000656d0000bb
:100c1800702000004c750000782000004d6f000027
:100c28006973000074750000720000003130000024
:100c3800302e000030460000203100003032000025
:100c48003320000031300000302500000031000062
:100c58002e2000004e650000747700006f720000bf
:100c68006b310000003200002e2000004e650000ad
:100c7800747700006f7200006b32000000330000d0
:100c88002e2000004e650000747700006f7200008f
:100c98006b330000004e000065740000776f0000a1
:100ca800726b00002031000000730000656c0000ca
:100cb8006563000074650000642e00002e2e00009d
:100cc800004e000065740000776f0000726b000032
:100cd80020320000004e000065740000776f0000ad
:100ce800726b000020330000004300006f6d0000ad
:100cf800696e000067200000536f00006f6e0000ef
:100d0800003100003d3e0000546f000070200000dc
:100d1800323d00003e5400006f7000002d4d000071
:100d280064000000333d00003e4200006f74000084
:100d38002d4d000064200000343d00003e420000bc
:100d48006f740000004300006f6e00006e650000c5
:100d580063740000696e000067200000696e00007f
:100d680000310000000000002400000024240000de
:100d7800004600000d000000432c0000302c00004d
:100d880038300000314600003132000042350000a2
:100d980038440000324600000d00000038300000e2
:100da800314600003132000042350000384400006e
:100db80032460000000000000d0a0000000000009c
:020000040000fa
:100dc8000000fa00f00020004805070014c0b30036
:100dd80013c0b3000041eb008040eb000040eb0083
:100de80030010700a00020004005070014c0b30030
:100df80013c0b3000041eb008040eb000040eb0063
:100e080028010700500020003805070014c0b3006f
:100e180013c0b3000041eb008040eb000040eb0042
:100e280020010700a0002000300507000042eb0069
:100e380013c0b3000041eb008040eb000040eb0022
:100e48001801070050002000280507000042eb00a9
:100e580013c0b3000041eb008040eb000040eb0002
:100e680010010700a0002000200507000042eb0049
:100e78008041eb000041eb0011c0b3000040eb00e3
:100e88000801070050002000180507000042eb0089
:100e98008041eb000041eb008040eb000040eb009c
:100ea8000001070014c0b30013c0b30012c0b300a0
:100eb80011c0b3000040eb00fa000700500020000a
:100ec8000a0507000042eb008041eb000041eb00ff
:100ed8008040eb000040eb00f20007000042eb000e
:100ee80013c0b30012c0b3008040eb000040eb0019
:100ef800ec00070050002000fc0407000080fa0006
:100f0800000006000000fa000042eb008041eb0000
:100f18000041eb008040eb000040eb00e1000700df
:100f280014c0b3008041eb000041eb008040eb00af
:100f38000040eb00db00070050002000eb04070036
:100f48000080fa00000006000000fa000042eb00f2
:100f58008041eb000041eb008040eb000040eb00db
:100f6800d00007000042eb0013c0b3000041eb00c3
:100f78008040eb000040eb00ca0007005000200052
:100f8800da0407000080fa00000006000000fa00fa
:100f98000042eb008041eb000041eb0011c0b300c0
:100fa8000040eb00bf0007000042eb008041eb006f
:100fb8000041eb008040eb000040eb00b900070067
:100fc80050002000c90407000080fa000000060055
:100fd8000000fa000042eb008041eb0012c0b300b1
:100fe80011c0b3000040eb00ae0007000042eb0068
:100ff8008041eb000041eb008040eb000040eb003b
:10100800a800070050002000b80407000080fa007c
:10101800000006000200fa00004f78001e40780029
:101028000004e0000f0032000042eb008041eb00ba
:101038000041eb008040eb000040eb009900070006
:1010480014c0b30013c0b30012c0b30011c0b30082
:101058000040eb009300070050002000a3040700a5
:101068000e0037000042eb008041eb000041eb002e
:101078008040eb000040eb008a0007000042eb00d4
:101088008041eb0012c0b30011c0b3000040eb0078
:101098008400070050002000940407000080fa0034
:1010a800000006000a00fa00400798000000eb0064
:1010b80020079800730037000000eb003007980005
:1010c8006d0037003e0090000000e00030003a005c
:1010d8002e009000ce009000008040001040780064
:1010e8008000fb00000820000080600000f0a700de
:1010f8000000ea000000ea004f00de00004f780020
:101108002e009000ce009000008040001040780033
:101118008000fb00000420000080600000f0a700b1
:101128000000ea000000ea004f00de0010479800c7
:101138002e009000ce009000008040001040780003
:101148008000fb00000220000080600000f0a70083
:101158000000ea000000ea004f00de002047980087
:101168002e009000ce0090000080400010407800d3
:101178000000fb007000600000f0a7000000ea001b
:101188000000ea004f00de00304798002f003700cb
:101198002e009000ce0090000080400010407800a3
:1011a8000000fb006800600000f0a7000000ea00f3
:1011b8000000ea004f00de00004f78002e0090008b
:1011c800ce00900000804000104078000000fb0036
:1011d8006400600000f0a7000000ea000000ea00d8
:1011e8004f00de00104798002e009000ce009000bf
:1011f80000804000104078000000fb0062006000a2
:1012080000f0a7000000ea000000ea004f00de003e
:10121800204798002e009000ce00900000804000eb
:10122800104078000000fb006100600000f0a7009b
:101238000000ea000000ea004f00de003047980096
:101248002e0090000000e800200798003e42900021
:10125800ae4190001e4190009e40780010c0b3003f
:101268001000070050002000200407003e009000f6
:101278000000e800300798003e009000e10f5000a1
:1012880090ff34002e009000ce00900000804000b7
:10129800104078000004e00087ff3a000080fa0060
:1012a800000006000600fa00004f78001147980079
:1012b8002247980033479800444798001e80fb0057
:1012c8004f00dd00d2338000f1ff2700810061006c
:1012d80001007000d03388001e4090000080fb00a1
:1012e800610060004600dd00d2338000f1fb2f0072
:1012f8008100610001007000d03388002e4090000a
:101308000080fb00610060004700dd00d2338000f0
:10131800f1f72f008100610001007000d0338800d0
:101328003e4090000080fb00610060004800dd0046
:10133800d2338000f1ef2f008100610001007000be
:10134800d03388004e4090000080fb0061006000b0
:101358004900dd00d2338000f1df2f0081006100f9
:1013680001007000d03388007bc6a8007bc6a900a6
:101378000080fa00000006000600fa00004f78001e
:10138800114798002247980033479800444798002f
:101398001e80fb004f00dd00d2338000f1ff2700e4
:1013a8008100610001007000d03388001e40900069
:1013b8000080fb00610060004600dd00d233800041
:1013c800f1fb2f008100610001007000d03388001c
:1013d8002e4090000080fb00610060004700dd00a7
:1013e800d2338000f1f72f00810061000100700006
:1013f800d03388003e4090000080fb006100600010
:101408004800dd00d2338000f1ef2f008100610039
:1014180001007000d03388004e4090000080fb002f
:10142800610060004900dd00d2338000f1df2f0049
:101438008100610001007000d03388007bc6a800dd
:101448007bc6a9000080fa00000006000000fa0030
:101458000028ef00abfe0700c04c280011ff070072
:10146800dbfe0700d04d28000eff07000040eb0010
:10147800e8fe07000080fa00000006000000fa00fd
:1014880010002000004088009efe0700e04e280063
:1014980004ff0700cefe0700e04f280001ff070009
:1014a8000080fa00000006000000fa00200020007a
:1014b8000040880093fe0700f0502800f9fe07005e
:1014c800c3fe070000522800f6fe07000080fa005d
:1014d800000006000000fa003000200000408800ec
:1014e80088fe070010532800eefe0700b8fe07002c
:1014f80020542800ebfe07000080fa0000000600d8
:101508000000fa0040002000004088007dfe07002f
:1015180030552800e3fe0700adfe070030562800ce
:10152800e0fe07000080fa00000006000000fa0054
:10153800500020000040880072fe07004057280035
:10154800d8fe0700a2fe070050582800d5fe070065
:101558000080fa00000006000000fa006000200089
:101568000040880067fe070060592800cdfe07008c
:1015780097fe0700705a2800cafe07000080fa008c
:10158800000006000000fa0091fe0700705b2800ca
:10159800c4fe07008efe0700805c2800c1fe07001d
:1015a80080bb200051030700b4ff07000080fa0049
:1015b800000006000000fa0085fe0700705b2800a6
:1015c800b8fe070082fe0700905d2800b5fe070000
:1015d80080bb200045030700a8ff07000080fa0031
:1015e800000006000000fa001040800000f0a7008c
:1015f8000000ea000000e9004f00de00104088000b
:10160800104080000000e0000a0032005ffe070082
:10161800705b2800a3fe07005cfe0700a05e2800a0
:10162800a0fe070080bb20003003070093ff0700df
:101638000900370055fe0700705b280099fe070077
:1016480052fe0700905f280096fe070080bb20002e
:101658002603070089ff07000080fa000000060043
:101668000000fa0027fe0700906028008dfe0700a2
:1016780057fe070008003700705b280089fe070046
:1016880053fe0700a061280086fe0700a00f200077
:10169800160307004efe070020408000e10f5000af
:1016a800f5ff3200204080000000e00002003a0010
:1016b8007dff07000100370064ff07000080fa0083
:1016c800000006000000fa000efe070040fe0700ba
:1016d800b062280073fe0700c05d20000303070006
:1016e80008fe0700b06228006efe070038fe0700fb
:1016f800706328006bfe0700c05d2000fb02070036
:1017080000fe07007063280066fe070030fe070031
:101718003064280063fe0700c05d2000f302070064
:10172800f8fd0700306428005efe0700c05d200059
:10173800ee020700f3fd0700803e2000eb020700e1
:1017480064ff07000080fa00000006000200fa00ab
:10175800000f78001e007800e20f50000e003200e3
:10176800e30f500016003200e10f50001f003a004e
:10177800e4fd0700f06428004afe070014fe070095
:101788009065280047fe0700007d2000d70207006b
:1017980050ff070016003700dafd070050662800e2
:1017a80040fe07000afe0700906528003dfe07007e
:1017b800007d2000cd02070046ff07000c0037001f
:1017c800d0fd0700f066280036fe070000fe07007f
:1017d8009065280033fe0700007d2000c302070043
:1017e8003cff070000000000010037000000000077
:1017f8000080fa00000006000000fa00c1fd0700a2
:101808009067280027fe0700c05d2000b702070088
:1018180030ff07000080fa00000006000000fa0010
:10182800b8fd0700506828001efe0700e8fd070005
:10183800606928001bfe0700409c2000ab020700df
:101848002fff07000080fa0000000600fc01fa00e4
:101858000000eb00000f780010002000100798002f
:101868001e009000004078000043b00000ff9b007d
:10187800e0c2b30010ff9b000040eb0020ff9b007c
:10188800390037001e0078000000e00018003a0018
:101898009cfd0700028120009e007800401f200068
:1018a8000088b9000000780080004100640047000b
:1018b800f5fb07000040eb0040579800c4fd070007
:1018c800801f20000e004000f6fd0700640047005e
:1018d800f4fd0700e02e2000840207001e0fe80038
:1018e8001e0090000000e800100798001e00370056
:1018f80084fd0700028120001e0078008000e900b6
:10190800401f20000088b9000000780080004100d6
:1019180064004700dcfb07000040eb0040579800dc
:1019280064004700dffd0700a9fd070002812000d1
:101938009e007800401f20000088b9000000780051
:101948008000410064004700cffb07000040eb0027
:101958004057980064004700d2fd0700e02e2000a1
:10196800620207001e0fe8009e007800401f20005a
:101978000088b90000007800e8004000808020005e
:1019880000804000104078000004e000bdff3a00ed
:101998005cfd0700028120001e0078008000e9003d
:1019a800401f20000088b900000078008000410036
:1019b80064004700b4fb07000040eb004057980064
:1019c80064004700b7fd0700e02e2000470207002b
:1019d800e1fe07000080fa00000006000000fa009f
:1019e80048fd0700706a2800aefd070078fd070073
:1019f800506b2800abfd0700803e20003b0207002b
:101a0800d5fe070010002000020007000080fa0041
:101a1800000006000200fa00000f78001e0078009f
:101a2800e10f500007003a00806b280015020700fc
:101a3800c00d20002d020700a06b2800110207002e
:101a48000e0037001e007800e20f500003003a0035
:101a5800d06b28000b020700080037001e00780032
:101a6800e30f500005003a0090f3220011c0b300c4
:101a780001487800006c2800020207000080fa0084
:101a880000000600d200fa0000af98000000eb004a
:101a9800000f78000000eb001007980001003700e5
:101aa8001e0fe8001e0078008ea8900000804000fd
:101ab800104078000004e000610032001e00780049
:101ac8008ea89000008040009040780050c2b3007b
:101ad80080cf5000f2ff3a005a0037000000eb00b8
:101ae80020079800010037001e0fe8001e0078004c
:101af8008ea89000008040009040780050c2b3004b
:101b080080cf5000f8ff32000c0037001e0078002c
:101b18008ea890000080400090407800680147003f
:101b28002e00900000004100014878002e0090002f
:101b38000000e800200798001e0fe8001e0078004b
:101b48008ea8900000804000104078000004e0005b
:101b5800070032001e0078008ea890000080400028
:101b68009040780050c2b30080cf5000e7ff3a00a1
:101b7800e80047002e009000008040008040eb0005
:101b8800014878000000eb00300798000c0037008f
:101b9800e80047003e009000008040009040780038
:101ba800c20620000e0141003e00900000004100e6
:101bb800014878003e0090000000e80030079800d7
:101bc800e80047003e009000008040009040780008
:101bd800c0c2b30080cf5000edff3a00c10620001c
:101be8008e8040003e009000008040008040eb0066
:101bf800014878000e4890000004e000110032000f
:101c08000e489000ed4f50000e0032000281200077
:101c18009e009000401f20000088b9000000780056
:101c2800000041009e0090008100e8001107980024
:101c3800c10620008e80400013fb0700010037001a
:101c4800000000001e0078008ea890000080400070
:101c5800104078000004e000a0ff3a000000eb000c
:101c6800200798000f00370002812000ae00900086
:101c7800401f20000088b9000000780000004100e3
:101c8800216d2800f0fa07000000e00002003a0089
:101c9800300020005fff07002e0090000000e800e1
:101ca80020079800ae009000401f20000088b9006f
:101cb80000007800e800400080802000008040009c
:101cc800104078000004e000e7ff3a000080fa00c6
:101cd800000006000400fa00100798000000eb005e
:101ce800000f7800010037001e0fe8001e00780082
:101cf8009e00900000804000104078000004e00042
:101d0800f9ff3a000080fa00000006000200fa001d
:101d1800000f780000408000e30f50004b003200b5
:101d2800e30f500007003c00e10f50002000320094
:101d3800e10f500032003c000000e00008003200d3
:101d480098003700e50f500061003200e50f5000a1
:101d580051003500e60f5000740032009100370042
:101d68001e007800e10f500002003a00c3fd070092
:101d78008c0037001e007800e20f500002003a0085
:101d8800c9fd0700870037001e007800e30f5000e8
:101d980002003a00cffd0700820037001e007800dd
:101da800e40f500070003a00d5fd07007d003700b1
:101db8001e007800e10f500002003a00f1fd070014
:101dc800780037001e007800e20f500002003a0049
:101dd800f8fd0700730037001e007800e30f50007d
:101de80002003a00fffd07006e0037001e00780071
:101df800e40f50005e003a0094fd070069003700c8
:101e08001e007800e10f500003003a001000200087
:101e180020408800630037001e007800e20f500061
:101e280002003a000428ef005e0037001e00780028
:101e3800e40f500050003a00204080000000e0000d
:101e48004f003a0081fd0700560037001e00780059
:101e5800e10f500002003a001afe0700090037009f
:101e68001e007800e20f500002003a00affd0700a4
:101e7800040037001e007800e30f500001003a000c
:101e88005dfe07001e007800e40f50003e003a0097
:101e98006efd0700430037001e007800e10f500078
:101ea80001003a00acfd07001e007800e30f500067
:101eb80002003a0059fe07003a0037001e00780079
:101ec800e40f500032003a0060fd0700350037008b
:101ed8001e007800e10f500003003a0010002000b7
:101ee8001afe07002f0037001e007800e20f50008e
:101ef80003003a002000200014fe070029003700e4
:101f08001e007800e30f500003003a003000200064
:101f18000efe0700230037001e007800e40f500073
:101f28001d003a006bfd07001e0037001e007800f8
:101f3800e10f500002003a0044fe07001900370084
:101f48001e007800e20f500002003a00a3fe0700ce
:101f5800140037001e007800e40f500010003a000b
:101f680067fd07000f003700000000000d00370074
:101f7800000000000b0037000000000009003700d7
:101f880000000000070037000000000005003700cf
:101f980000000000030037000000000001003700c7
:101fa800000000000080fa00000006000000fa00af
:101fb800050007000c000700650007007200070015
:101fc8000080fa00000006000000fa007a26ef0000
:101fd8000080eb00b03388007e26ef006286a900ff
:101fe8000080fa00000006000200fa009823ef00c3
:101ff8009a23ef007666a9007646a800a13d8000e6
:1020080000fc2f00008060000010a000a03d8800a8
:10201800b13e8000f00f2800808060000030200072
:1020280001007000b03e88008960a9006105800049
:10203800f0ff28008080600000002300010070008d
:10204800600588009960a80090012000001d8800a4
:1020580099e3a8009b43a800f0002000000f780037
:102068000000eb00000f7800090037009e007800a0
:10207800401f20000088b9008000780000812000ff
:10208800008040008040eb00014878001e0fe80007
:102098001e007800ee0f5000f4ff3400808020000e
:1020a80011c0b3000148780080f322008040eb00a3
:1020b8000148780090f322008040eb000148780046
:1020c8000000eb00704088000000eb0050408800e2
:1020d800024020008000eb0080b32200d3f9070003
:1020e800ae23ef00b023ef007686a90076a6a800fd
:1020f800b13d800000fc2f00008060005000b3005c
:10210800b03d8800c13e800000f82f0000806000cc
:102118005000b300c03e88008bc0a900b105800004
:10212800f08f2f00808060000030200001007000d8
:10213800b00588009bc0a80090012000b01d880051
:10214800afe3a800b143a8000080fa000000060031
:102158000000fa0077e6a90077c6a90076c6a900ac
:1021680076e6a9007706a9007726a90014fb0700e0
:1021780064fb070010c0b300a6fb0700b3fc070010
:102188000080fa00000006000000fa0077a6a80008
:102198007786a8007766a8007746a8008346a80037
:1021a8008366a8008386a80083a6a8008746a8009f
:1021b8008766a8008786a80087a6a8005fe6a8000b
:1021c8008426ef008a60a90081058000f0ff2800be
:1021d80080806000000023000100700080058800f6
:1021e8009a60a8000080fa00000006000200fa00c9
:1021f800004f78001e00fb00e01c88000080fa00f9
:10220800000006000400fa00100798000000eb0028
:10221800000f78000d00370000000000d11c80007e
:1022280000102000008060000000e000fbff32008a
:102238001e0078009e00900000804000104078004a
:102248000000fb00e01c88001e0fe8001e0078005c
:102258009e00900000804000104078000004e000dc
:10226800edff3a000080fa00000006000200fa00c4
:10227800004f78001e00fb00901d88000080fa00c7
:10228800000006000400fa00100798000000eb00a8
:10229800000f78000d00370000000000811d80004d
:1022a80000102000008060000000e000fbff32000a
:1022b8001e0078009e0090000080400010407800ca
:1022c8000000fb00901d88001e0fe8001e0078002b
:1022d8009e00900000804000104078000004e0005c
:1022e800edff3a000080fa00000006000600fa0040
:1022f800200798002e00900000004000000f780092
:102308000a003700c01120001007980003003700aa
:102318001e0090000000e900100798001e009000c1
:102328000000e000faff3c001e0fe9001e007800e4
:102338000000e000f3ff3c000000eb0010079800ed
:102348000080fa00000006000400fa002047980008
:10235800200020000bf90700000f78001e0078000d
:10236800ae409000014878001e00e8008040eb0075
:10237800014878001e0078000080fa00000006007e
:102388000000fa0009ff0700803e2000d7ff070081
:10239800303380007000600000f0a7000000ea0001
:1023a8000000e9004f00de00004078000080fb00dc
:1023b800610060004400dd0032338000f1fe2f0030
:1023c80081006100010070003033880020408000e7
:1023d800e10f500001003a00a1fc070080b3220081
:1023e80088ff0700006e280086ff0700006e28009f
:0823f80084ff0700e4ff370039
:020000040000fa
:10240000060800000200000082000000e80300004f
:10241000000800000600000080000000080800001e
:102420003427000080000000402f00000200000060
:1024300082000000040000003c2f000004000000a7
:1024400080000000422f0000020000008000000019
:042450000000000088
:020000040000fa
:020000040005f5
:045e0000ffff0000a0
:020000040000fa
:020000040005f5
:045e2000ffffff0081
:020000040000fa
:020000040005f5
:045e3000f8ffff0078
:020000040000fa
:020000040005f5
:045e3800b7ffff00b1
:020000040000fa
:020000040005f5
:045e40009fffff00c1
:020000040000fa
:020000040005f5
:045e4800ffffff0059
:020000040000fa
:020000040005f5
:045e5000dfffff0071
:020000040000fa
:020000040005f5
:045e5800ffffff0049
:00000001FF
