:020000040000fa
:080000000001040000000000f3
:020000040000fa
:04000800ac02000046
:020000040000fa
:04000c00ac02000042
:020000040000fa
:04001000ac0200003e
:020000040000fa
:04001400ac0200003a
:020000040000fa
:04001800ac02000036
:020000040000fa
:04001c00ac02000032
:020000040000fa
:04002000ac0200002e
:020000040000fa
:04002400ac0200002a
:020000040000fa
:04002800ac02000026
:020000040000fa
:04002c00ac02000022
:020000040000fa
:04003000ac0200001e
:020000040000fa
:04003400ac0200001a
:020000040000fa
:04003800ac02000016
:020000040000fa
:04003c00ac02000012
:020000040000fa
:04004000ac0200000e
:020000040000fa
:04004400ac0200000a
:020000040000fa
:04004800ac02000006
:020000040000fa
:04004c00ac02000002
:020000040000fa
:04005000ac020000fe
:020000040000fa
:0400540004020000a2
:020000040000fa
:04005800ac020000f6
:020000040000fa
:04005c00ac020000f2
:020000040000fa
:04006000ac020000ee
:020000040000fa
:04006400ac020000ea
:020000040000fa
:04006800ac020000e6
:020000040000fa
:04006c00ac020000e2
:020000040000fa
:04007000ac020000de
:020000040000fa
:040074005002000036
:020000040000fa
:04007800ac020000d6
:020000040000fa
:04007c00ac020000d2
:020000040000fa
:04008000ac020000ce
:020000040000fa
:04008400ac020000ca
:020000040000fa
:04008800ac020000c6
:020000040000fa
:04008c00ac020000c2
:020000040000fa
:04009000ac020000be
:020000040000fa
:04009400ac020000ba
:020000040000fa
:04009800ac020000b6
:020000040000fa
:04009c00ac020000b2
:020000040000fa
:0400a0001802000042
:020000040000fa
:0400a400ac020000aa
:020000040000fa
:0400a800ac020000a6
:020000040000fa
:0400ac00ac020000a2
:020000040000fa
:0400b000ac0200009e
:020000040000fa
:0400b400ac0200009a
:020000040000fa
:0400b800ac02000096
:020000040000fa
:0400bc00ac02000092
:020000040000fa
:0400c000ac0200008e
:020000040000fa
:0400c400ac0200008a
:020000040000fa
:0400c800ac02000086
:020000040000fa
:0400cc00ac02000082
:020000040000fa
:0400d000ac0200007e
:020000040000fa
:0400d400ac0200007a
:020000040000fa
:0400d800ac02000076
:020000040000fa
:0400dc00ac02000072
:020000040000fa
:0400e000ac0200006e
:020000040000fa
:0400e400ac0200006a
:020000040000fa
:0400e800ac02000066
:020000040000fa
:0400ec00ac02000062
:020000040000fa
:0400f000ac0200005e
:020000040000fa
:0400f400ac0200005a
:020000040000fa
:0400f800ac02000056
:020000040000fa
:0400fc00ac02000052
:020000040000fa
:04010000ac0200004d
:020000040000fa
:04010400ac02000049
:020000040000fa
:04010800ac02000045
:020000040000fa
:04010c00ac02000041
:020000040000fa
:04011000ac0200003d
:020000040000fa
:04011400ac02000039
:020000040000fa
:04011800ac02000035
:020000040000fa
:04011c00ac02000031
:020000040000fa
:04012000ac0200002d
:020000040000fa
:04012400ac02000029
:020000040000fa
:04012800ac02000025
:020000040000fa
:04012c00ac02000021
:020000040000fa
:04013000ac0200001d
:020000040000fa
:04013400ac02000019
:020000040000fa
:04013800ac02000015
:020000040000fa
:04013c00ac02000011
:020000040000fa
:04014000ac0200000d
:020000040000fa
:04014400ac02000009
:020000040000fa
:04014800ac02000005
:020000040000fa
:04014c00ac02000001
:020000040000fa
:04015000ac020000fd
:020000040000fa
:04015400ac020000f9
:020000040000fa
:04015800ac020000f5
:020000040000fa
:04015c00ac020000f1
:020000040000fa
:04016000ac020000ed
:020000040000fa
:04016400ac020000e9
:020000040000fa
:04016800ac020000e5
:020000040000fa
:04016c00ac020000e1
:020000040000fa
:04017000ac020000dd
:020000040000fa
:04017400ac020000d9
:020000040000fa
:04017800ac020000d5
:020000040000fa
:04017c00ac020000d1
:020000040000fa
:04018000ac020000cd
:020000040000fa
:04018400ac020000c9
:020000040000fa
:04018800ac020000c5
:020000040000fa
:04018c00ac020000c1
:020000040000fa
:04019000ac020000bd
:020000040000fa
:04019400ac020000b9
:020000040000fa
:04019800ac020000b5
:020000040000fa
:04019c00ac020000b1
:020000040000fa
:0401a000ac020000ad
:020000040000fa
:0401a400ac020000a9
:020000040000fa
:0401a800ac020000a5
:020000040000fa
:0401ac00ac020000a1
:020000040000fa
:0401b000ac0200009d
:020000040000fa
:0401b400ac02000099
:020000040000fa
:0401b800ac02000095
:020000040000fa
:0401bc00ac02000091
:020000040000fa
:0401c000ac0200008d
:020000040000fa
:0401c400ac02000089
:020000040000fa
:0401c800ac02000085
:020000040000fa
:0401cc00ac02000081
:020000040000fa
:0401d000ac0200007d
:020000040000fa
:0401d400ac02000079
:020000040000fa
:0401d800ac02000075
:020000040000fa
:0401dc00ac02000071
:020000040000fa
:0401e000ac0200006d
:020000040000fa
:0401e400ac02000069
:020000040000fa
:0401e800ac02000065
:020000040000fa
:0401ec00ac02000061
:020000040000fa
:0401f000ac0200005d
:020000040000fa
:0401f400ac02000059
:020000040000fa
:0401f800ac02000055
:020000040000fa
:0401fc00ac02000051
:020000040000fa
:100200008fc120000e7f24000e0188000000000036
:10021000000020000000e000020032000001200089
:100220002002880014000700ee0007000000e00034
:1002300003003a006007210001002000020037009f
:100240000000200001002000810f7000010032003a
:1002500014000700000020000000e000020032004f
:100260000000020000000000d80f020000000000a3
:100270000040da000000fe004440a90000232000f6
:100280000000e00003003200002020009001880000
:100290004440a800000006008a1f78008b1f7800e9
:1002a00000000600a1028800800478000000eb0036
:1002b0001f003700e284440054a0b4009905ba003e
:1002c000e284440054a0b4009906ba00e2844400d9
:1002d00054a0b4000006eb00476fde00fd07b2003b
:1002e000ae018800636ce10003003a00eaff0700fa
:1002f0000000eb000e003700606ce10008003a00df
:10030000004deb000a05e800020039003420ec0043
:100310000af0a0008b05e900f9ff3e000400370059
:100320006168e100010032000086eb000b0007006d
:1003300019c7ba001905ba000e04e00003003a001c
:100340000a00e000dbff3a0000000600fe07b200f2
:10035000ae0288008a047800f5ff37000cd0a300b5
:10036000e20f4d001c00390089027800354dba00bb
:100370000a05e800020039003420ec000af0a00071
:100380008b05e9000f003200254dba000a05e80090
:10039000020039003420ec000af0a0008b05e900cf
:1003a000080032000c00e0000600320015cdba0053
:1003b0000a05e800020039003420ec000af0a00031
:1003c0008b05e9008984e80054a0b4000b00e0002c
:1003d000e2ff3a00000006009902ba00055d7800cd
:1003e0008b05e900f7ff3200c82ade00055d7800c2
:1003f0008b05e900f3ff32000c00e000f1ff320052
:1004000019ddba00eeff3700801f78000200fa0005
:10041000f01c8000004f78001e00fb00e01c8800ec
:100420008960a9000080fa004f00780000400600b3
:100430003600f800809fbe00829fbe00849fbe00f1
:10044000869fbe000200fa00a01d8000004f7800c9
:1004500040408000e1802000810040009e487800fc
:100460000000e80040408800e0c3b3009e407800f0
:1004700080cf500002003a002000200086050700cf
:100480008bc0a9000080fa004f03be004f02be00df
:100490004f01be004f00be003600f90000400600cc
:1004a0003600f800809fbe00829fbe00849fbe0081
:1004b000869fbe000000fa00213480000000220068
:1004c000008060000000e000030032001000200007
:1004d000cd04070017003700213480000000210000
:1004e000008060000000e0000300320020002000d7
:1004f000c50407000f003700213480000080200071
:10050000008060000000e0000300320030002000a6
:10051000bd040700070037002134800000402000a0
:10052000008060000000e000020032004000200077
:10053000b50407008426ef008a60a9000080fa0055
:100540004f03be004f02be004f01be004f00be0071
:100550003600f900004006000040da000000fe000e
:10056000889fbe0080047800b06080000000e0003a
:1005700004003a000e0007000084eb000000e000d9
:1005800008003500b86080000900e0000500320076
:1005900009004400060007000000e00001003d00e3
:1005a0000084eb00080078004f04be000000060045
:1005b000800078000100e00003003a000000200005
:1005c000b0608800000005000080eb000200200001
:1005d000828f500002003e00b16088000000eb00f6
:1005e0000000060000000500889fbe00000478009f
:1005f000816080000100e00002003200010078000c
:100600000d0037009160800020c1200004003700f9
:10061000910f5400250036000180e8009100900001
:100620000100e000faff3a0010003700920f54007a
:100630001e0036000280e800100178000200e00091
:10064000faff3a00110178009160800020c120007b
:1006500004003700910f5400140036000180e800b8
:1006600091009000828f5000faff3a00a96080004c
:10067000888f540001003100880478000900780058
:10068000460007000000e00004003a00888f540094
:10069000050032008904d100f5ff37000918780001
:1006a00048000700d2ff37000000eb004f04be00f7
:1006b00000000600881f7800630440000800a100c5
:1006c0008000eb00800f540021003600e30f54003f
:1006d00001003e004800200008007800c2ff07002b
:1006e0008000eb000000e00019003200900078006c
:1006f0009101780064815100880f5100030031009e
:1007000011019000020878000700370008814000be
:100710000208780091019000130198001001780000
:100720001109140088087800100178000000eb001f
:100730000200e00004003200920190000300e0009b
:10074000010032000280e800806088008180e800bb
:10075000010078004f047800000006000200370016
:100760000204e0000b0032008101780000027800f2
:1007700030417800b14f5100f9ff320010002000e5
:1007800014427800934f5200030031000080eb00c8
:10079000000006000000eb0000000600800078006a
:1007a0000000eb000100e0000500340001007800cb
:1007b0006bff0700e10f400001003a000000eb0072
:1007c000000006000000e0002f003200c0017800a9
:1007d000e38f51002c0036000308a3002a003a00e2
:1007e000916080000100e00002003200810f5000a3
:1007f0000400310011009800906088001600370056
:1008000082007800110190000200e0000200320036
:10081000800f5100faff39001102780084824000f5
:10082000850f500018003900808f520003003a00f5
:100830008308420001007800070037000200e00052
:100840000300320083014000830f51000e00390085
:100850001200980090009800900090000100e000c5
:100860000900320010014000828f500006003a005b
:1008700002c120000009eb001001780011084100be
:0c0880009100900011009800000006009c
:020000040000fa
:10088c00312e0000576100007465000072200000da
:10089c0020200000322e0000446100007461000032
:1008ac00003300002e57000069460000692000004c
:1008bc0020200000203400002e4d00006f7200003c
:1008cc0065000000312e00004f4e0000202000007b
:1008dc002020000020200000322e00004f46000097
:1008ec0046000000332e000041750000746f0000bc
:1008fc002020000020200000342e00004261000067
:10090c00636b0000003100002e530000686f000084
:10091c007720000020200000203200002e4800002c
:10092c006964000065000000332e00004e2f0000ab
:10093c00412000002020000020200000342e000068
:10094c0042610000636b0000003100002e53000078
:10095c00686f000077200000322e0000436f00000b
:10096c006e6e00006563000074000000332e000002
:10097c00436f00006e6e00003f200000202000003e
:10098c00342e000042610000636b00000031000057
:10099c002e530000657400007570000020200000cc
:1009ac00203200002e4e00002f41000000330000ca
:1009bc002e4900006e6600006f2000002020000011
:1009cc00203400002e420000616300006b00000028
:1009dc00312e00004e650000743100002020000014
:1009ec0020200000322e00004e6500007432000002
:1009fc00003300002e4e0000657400003320000010
:100a0c0020200000203400002e4200006163000012
:100a1c006b000000312e0000566900006577000065
:100a2c00203200002e4300006f6e00006e65000047
:100a3c0063740000003300002e4e00002f410000b4
:100a4c002020000020200000342e00004261000015
:100a5c00636b00000020000020200000202000001c
:100a6c00202000002020000020200000202000007a
:100a7c002020000020000000576100007465000079
:100a8c00726900006e670000204500006e61000076
:100a9c00626c000065640000005700006174000087
:100aac00657200002073000068750000742000005f
:100abc00646f0000776e000021000000417500009b
:100acc00746f00002d7700006174000065720000e7
:100adc003a2000004f4e00000041000075740000e9
:100aec006f2d00007761000074650000723a000001
:100afc00204f00004646000000540000656d0000c9
:100b0c00702000004c750000782000004d6f000034
:100b1c006973000074750000720000003130000031
:100b2c00302e000030460000203100003032000032
:100b3c00332000003130000030250000003100006f
:100b4c002e2000004e650000747700006f720000cc
:100b5c006b310000003200002e2000004e650000ba
:100b6c00747700006f7200006b32000000330000dd
:100b7c002e2000004e650000747700006f7200009c
:100b8c006b330000004e000065740000776f0000ae
:100b9c00726b00002031000000730000656c0000d7
:100bac006563000074650000642e00002e2e0000aa
:100bbc00004e000065740000776f0000726b00003f
:100bcc0020320000004e000065740000776f0000ba
:100bdc00726b000020330000004300006f6d0000ba
:100bec00696e000067200000536f00006f6e0000fc
:100bfc00003100003d3e0000546f000070200000ea
:100c0c00323d00003e5400006f7000002d4d00007e
:100c1c0064000000333d00003e4200006f74000091
:100c2c002d4d000064200000343d00003e420000c9
:100c3c006f740000004e00002f41000000380000cf
:100c4c0030310000463100003242000035380000df
:100c5c004432000046000000436f00006e6e00003e
:100c6c0065630000746900006e6700002069000075
:100c7c006e00000033000000320000003100000064
:100c8c002400000024240000004600000d00000099
:100c9c00432c0000302c000038300000314600009e
:100cac00313200004235000038440000324600006a
:100cbc000d000000383000003146000031320000d9
:100ccc004235000038440000324600000068000045
:100cdc0065790000000000000d0a00000000000013
:020000040000fa
:100cec000000fa00f0002000da04070014c0b30082
:100cfc0013c0b3000041eb008040eb000040eb0060
:100d0c0030010700a0002000d204070014c0b3007b
:100d1c0013c0b3000041eb008040eb000040eb003f
:100d2c002801070050002000ca04070014c0b300bb
:100d3c0013c0b3000041eb008040eb000040eb001f
:100d4c0020010700a0002000c20407000042eb00b5
:100d5c0013c0b3000041eb008040eb000040eb00ff
:100d6c001801070050002000ba0407000042eb00f5
:100d7c0013c0b3000041eb008040eb000040eb00df
:100d8c0010010700a0002000b20407000042eb0095
:100d9c008041eb000041eb0011c0b3000040eb00c0
:100dac000801070050002000aa0407000042eb00d5
:100dbc008041eb000041eb008040eb000040eb0079
:100dcc000001070014c0b30013c0b30012c0b3007d
:100ddc0011c0b3000040eb00fa00070050002000e7
:100dec009c0407000042eb008041eb000041eb004b
:100dfc008040eb000040eb00f20007000042eb00eb
:100e0c0013c0b30012c0b3008040eb000040eb00f5
:100e1c00ec000700500020008e0407000080fa0050
:100e2c00000006000000fa000042eb008041eb00dd
:100e3c000041eb008040eb000040eb00e1000700bc
:100e4c0014c0b3008041eb000041eb008040eb008c
:100e5c000040eb00db000700500020007d04070081
:100e6c000080fa00000006000000fa000042eb00cf
:100e7c008041eb000041eb008040eb000040eb00b8
:100e8c00d00007000042eb0013c0b3000041eb00a0
:100e9c008040eb000040eb00ca000700500020002f
:100eac006c0407000080fa00000006000000fa0045
:100ebc000042eb008041eb000041eb0011c0b3009d
:100ecc000040eb00bf0007000042eb008041eb004c
:100edc000041eb008040eb000040eb00b900070044
:100eec00500020005b0407000080fa0000000600a0
:100efc000000fa000042eb008041eb0012c0b3008e
:100f0c0011c0b3000040eb00ae0007000042eb0044
:100f1c008041eb000041eb008040eb000040eb0017
:100f2c00a8000700500020004a0407000080fa00c7
:100f3c00000006000200fa00004f78001e40780006
:100f4c000004e0000f0032000042eb008041eb0097
:100f5c000041eb008040eb000040eb0099000700e3
:100f6c0014c0b30013c0b30012c0b30011c0b3005f
:100f7c000040eb00930007005000200035040700f0
:100f8c000e0037000042eb008041eb000041eb000b
:100f9c008040eb000040eb008a0007000042eb00b1
:100fac008041eb0012c0b30011c0b3000040eb0055
:100fbc008400070050002000260407000080fa007f
:100fcc00000006000a00fa00400798000000eb0041
:100fdc0020079800730037000000eb0030079800e2
:100fec006d0037003e0090000000e00030003a0039
:100ffc002e009000ce009000008040001040780041
:10100c008000fb00000820000080600000f0a700ba
:10101c000000ea000000ea004f00de00004f7800fc
:10102c002e009000ce009000008040001040780010
:10103c008000fb00000420000080600000f0a7008e
:10104c000000ea000000ea004f00de0010479800a4
:10105c002e009000ce0090000080400010407800e0
:10106c008000fb00000220000080600000f0a70060
:10107c000000ea000000ea004f00de002047980064
:10108c002e009000ce0090000080400010407800b0
:10109c000000fb007000600000f0a7000000ea00f8
:1010ac000000ea004f00de00304798002f003700a8
:1010bc002e009000ce009000008040001040780080
:1010cc000000fb006800600000f0a7000000ea00d0
:1010dc000000ea004f00de00004f78002e00900068
:1010ec00ce00900000804000104078000000fb0013
:1010fc006400600000f0a7000000ea000000ea00b5
:10110c004f00de00104798002e009000ce0090009b
:10111c0000804000104078000000fb00620060007e
:10112c0000f0a7000000ea000000ea004f00de001b
:10113c00204798002e009000ce00900000804000c8
:10114c00104078000000fb006100600000f0a70078
:10115c000000ea000000ea004f00de003047980073
:10116c002e0090000000e800200798003e429000fe
:10117c00ae4190001e4190009e40780010c0b3001c
:10118c001000070050002000b20307003e00900042
:10119c000000e800300798003e009000e10f50007e
:1011ac0090ff34002e009000ce0090000080400094
:1011bc00104078000004e00087ff3a000080fa003d
:1011cc00000006000600fa00004f78001147980056
:1011dc002247980033479800444798001e80fb0034
:1011ec004f00dd00d2338000f1ff27008100610049
:1011fc0001007000d03388001e4090000080fb007e
:10120c00610060004600dd00d2338000f1fb2f004e
:10121c008100610001007000d03388002e409000e6
:10122c000080fb00610060004700dd00d2338000cd
:10123c00f1f72f008100610001007000d0338800ad
:10124c003e4090000080fb00610060004800dd0023
:10125c00d2338000f1ef2f0081006100010070009b
:10126c00d03388004e4090000080fb00610060008d
:10127c004900dd00d2338000f1df2f0081006100d6
:10128c0001007000d03388007bc6a8007bc6a90083
:10129c000080fa00000006000600fa00004f7800fb
:1012ac00114798002247980033479800444798000c
:1012bc001e80fb004f00dd00d2338000f1ff2700c1
:1012cc008100610001007000d03388001e40900046
:1012dc000080fb00610060004600dd00d23380001e
:1012ec00f1fb2f008100610001007000d0338800f9
:1012fc002e4090000080fb00610060004700dd0084
:10130c00d2338000f1f72f008100610001007000e2
:10131c00d03388003e4090000080fb0061006000ec
:10132c004800dd00d2338000f1ef2f008100610016
:10133c0001007000d03388004e4090000080fb000c
:10134c00610060004900dd00d2338000f1df2f0026
:10135c008100610001007000d03388007bc6a800ba
:10136c007bc6a9000080fa00000006000000fa000d
:10137c000028ef00abfe07006044280011ff0700b7
:10138c00dbfe0700704528000eff07000040eb0055
:10139c00e8fe07000080fa00000006000000fa00da
:1013ac0010002000004088009efe070080462800a8
:1013bc0004ff0700cefe07008047280001ff07004e
:1013cc000080fa00000006000000fa002000200057
:1013dc000040880093fe070090482800f9fe0700a3
:1013ec00c3fe0700a0492800f6fe07000080fa00a3
:1013fc00000006000000fa003000200000408800c9
:10140c0088fe0700b04a2800eefe0700b8fe070071
:10141c00c04b2800ebfe07000080fa00000006001d
:10142c000000fa0040002000004088007dfe07000c
:10143c00d04c2800e3fe0700adfe0700d04d28007d
:10144c00e0fe07000080fa00000006000000fa0031
:10145c00500020000040880072fe0700e04e28007b
:10146c00d8fe0700a2fe0700f04f2800d5fe0700ab
:10147c000080fa00000006000000fa006000200066
:10148c000040880067fe070000512800cdfe0700d1
:10149c0097fe070010522800cafe07000080fa00d1
:1014ac00000006000000fa0091fe0700105328000f
:1014bc00c4fe07008efe070020542800c1fe070062
:1014cc0080bb2000e3020700b4ff07000080fa0095
:1014dc00000006000000fa0085fe070010532800eb
:1014ec00b8fe070082fe070030552800b5fe070045
:1014fc0080bb2000d7020700a8ff07000080fa007d
:10150c00000006000000fa001040800000f0a70068
:10151c000000ea000000e9004f00de0010408800e7
:10152c00104080000000e0000a0032005ffe07005f
:10153c0010532800a3fe07005cfe0700405628004d
:10154c00a0fe070080bb2000c202070093ff07002b
:10155c000900370055fe07001053280099fe0700bc
:10156c0052fe07003057280096fe070080bb200073
:10157c00b802070089ff07000080fa00000006008f
:10158c000000fa0027fe0700305828008dfe0700e7
:10159c0057fe0700080037001053280089fe07008b
:1015ac0053fe07004059280086fe0700a00f2000bc
:1015bc00a80207004efe070020408000e10f5000fb
:1015cc00f5ff3200204080000000e00002003a00ed
:1015dc007dff07000100370064ff07000080fa0060
:1015ec00000006000000fa000efe070040fe070097
:1015fc00505a280073fe0700c05d200095020700ba
:10160c0008fe0700505a28006efe070038fe07003f
:10161c00105b28006bfe0700c05d20008d020700e8
:10162c0000fe0700105b280066fe070030fe070076
:10163c00d05b280063fe0700c05d20008502070018
:10164c00f8fd0700d05b28005efe0700c05d20009f
:10165c0080020700f3fd0700803e20007d0207009a
:10166c0064ff07000080fa00000006000200fa0088
:10167c00000f78001e007800e20f50000e003200c0
:10168c00e30f500016003200e10f50001f003a002b
:10169c00e4fd0700905c28004afe070014fe0700da
:1016ac00305d280047fe0700007d2000690207001e
:1016bc0050ff070016003700dafd0700f05d280028
:1016cc0040fe07000afe0700305d28003dfe0700c3
:1016dc00007d20005f02070046ff07000c0037006a
:1016ec00d0fd0700905e280036fe070000fe0700c4
:1016fc00305d280033fe0700007d200055020700f6
:10170c003cff070000000000010037000000000053
:10171c000080fa00000006000000fa00c1fd07007e
:10172c00305f280027fe0700c05d2000490207003b
:10173c0030ff07000080fa00000006000000fa00ed
:10174c00b8fd0700f05f28001efe0700e8fd07004b
:10175c00006128001bfe0700409c20003d02070092
:10176c002fff07000080fa00000006000000fa00be
:10177c00acfd07001062280012fe0700dcfd07001c
:10178c00506228000ffe0700c05d200031020700e8
:10179c0039ff07000080fa00000006000000fa0084
:1017ac00a0fd07002063280006fe0700d0fd0700ff
:1017bc000064280003fe0700803e2000250207007d
:1017cc00cbfd070020642800fefd0700803e2000b2
:1017dc0020020700c6fd070040642800f9fd070041
:1017ec00803e20001b02070023ff07001000200092
:1017fc00a60007000080fa00000006000200fa00b4
:10180c00000f780000408000e30f500049003200c8
:10181c00e30f500007003c00e10f500020003200a5
:10182c00e10f500032003c000000e00008003200e4
:10183c0094003700e50f50005f003200e50f5000b8
:10184c004f003500e60f5000720032008d0037005b
:10185c001e007800e10f500002003a00cffe070096
:10186c00880037001e007800e20f500002003a009a
:10187c00d5fe0700830037001e007800e30f5000f0
:10188c0002003a00dbfe07007e0037001e007800e5
:10189c00e40f50006e003a00e1fe070079003700bb
:1018ac001e007800e10f500002003a00fdfe070018
:1018bc00740037001e007800e20f500002003a005e
:1018cc0004ff07006f0037001e007800e30f500084
:1018dc0002003a000bff07006a0037001e00780078
:1018ec00e40f50005c003a00a0fe070065003700d2
:1018fc001e007800e10f500003003a001000200099
:10190c00204088005f0037001e007800e20f500076
:10191c0002003a000428ef005a0037001e0078003d
:10192c00e40f50004e003a002000200020408800b8
:10193c00540037001e007800e10f500002003a00fe
:10194c0028ff0700090037001e007800e20f500046
:10195c0002003a00bdfe0700040037001e007800ac
:10196c00e30f500001003a006bff07001e007800e7
:10197c00e40f50003c003a007cfe070041003700a9
:10198c001e007800e10f500001003a00bafe07007b
:10199c001e007800e30f500002003a0067ff0700ba
:1019ac00380037001e007800e40f500030003a0079
:1019bc006efe0700330037001e007800e10f500068
:1019cc0003003a001000200028ff07002d0037000c
:1019dc001e007800e20f500003003a0020002000a7
:1019ec0022ff0700270037001e007800e30f50008d
:1019fc0003003a00300020001cff070021003700d4
:101a0c001e007800e40f50001b003a0079fe07001e
:101a1c001c0037001e007800e10f500002003a0055
:101a2c0052ff0700170037001e007800e20f50002d
:101a3c0002003a0059ff0700120037001e00780020
:101a4c00e40f50000e003a0075fe07000d00370041
:101a5c00000000000b0037000000000009003700f8
:101a6c0000000000070037000000000005003700f0
:101a7c0000000000030037000000000001003700e8
:101a8c00000000000080fa00000006000200fa00ce
:101a9c00000f78001e007800e10f500007003a009c
:101aac006064280025010700c00d200069010700b3
:101abc0080642800210107000b0037001e0078000d
:101acc00e20f500003003a00b06428001b0107002d
:101adc00050037001e007800e30f500002003a00aa
:101aec00e0642800150107000080fa0000000600e1
:101afc005000fa00702798000000eb00000f7800ef
:101b0c000000eb00200798000000eb00000f7800ad
:101b1c000900370020032000e3fa0700800078005a
:101b2c001e007800000040000000470068004000e4
:101b3c00010878001e0fe8001e007800e90f500025
:101b4c00f4ff34000000eb00000f78004500370074
:101b5c000040eb00405f9800100020003007980018
:101b6c000000eb00100798002e009000e10f5000d1
:101b7c00200034001e0fe8001f0037001e00780004
:101b8c00fe2090000080400090407800c0c2b3005e
:101b9c0080cf500007003a000000eb00300798009f
:101bac00fc0047001e009000008040008040eb00cd
:101bbc00014878003e0090000000e0000b0032006d
:101bcc001e007800fe2090000080400090407800bd
:101bdc007c0147001e009000000041000148780085
:101bec001e0090000000e800100798001e0fe8008f
:101bfc0001003700000000001e007800fe2090005d
:101c0c00008040009040780050c2b30080cf50005c
:101c1c00daff3a002e009000000040000000470060
:101c2c00680040007c0847007c00470001662800e3
:101c3c00c7fa07000000e000070032000000eb00cc
:101c4c0040408800e08020008040eb000148780094
:101c5c00300020008dff07002e0090000000e800ef
:101c6c00200798001e007800fe20900000804000a5
:101c7c00104078000004e000b5ff3a004e009000e0
:101c8c000080fa00000006003800fa00301f9800af
:101c9c000000eb00000f7800070037001e007800f2
:101cac00be18900000804000904078000e80e80044
:101cbc001e004000014878001e007800be189000fd
:101ccc00008040009040780050c2b30080cf50009c
:101cdc00f2ff3a00d0662800201f98004003200035
:101cec000e0040000080fa00000006000000fa0020
:101cfc00050007000c000700430007005000070018
:101d0c000080fa00000006000000fa007a26ef00be
:101d1c000080eb00b03388007e26ef006286a900bd
:101d2c000080fa00000006000000fa009823ef0083
:101d3c009a23ef007666a9007646a800a13d8000a4
:101d4c0000fc2f00008060000010a000a03d880067
:101d5c00b13e8000f00f2800808060000030200031
:101d6c0001007000b03e88008960a9006105800008
:101d7c00f0ff28008080600000002300010070004c
:101d8c00600588009960a80090012000001d880063
:101d9c0099e3a8009b43a800ae23ef00b023ef000b
:101dac007686a90076a6a800b13d800000fc2f0025
:101dbc00008060005000b300b03d8800c13e800040
:101dcc0000f82f00008060005000b300c03e880077
:101ddc008bc0a900b1058000f08f2f0080806000bf
:101dec000030200001007000b00588009bc0a800e6
:101dfc0090012000b01d8800afe3a800b143a800fb
:101e0c000080fa00000006000000fa0077e6a90046
:101e1c0077c6a90076c6a90076e6a9007706a900c0
:101e2c007726a900aefb0700fefb070010c0b3002d
:101e3c0040fc07004dfd07000080fa000000060082
:101e4c000000fa0077a6a8007786a8007766a8009d
:101e5c007746a8008346a8008366a8008386a8005e
:101e6c0083a6a8008746a8008766a8008786a800d6
:101e7c0087a6a8005fe6a8008426ef008a60a90068
:101e8c0081058000f0ff28008080600000002300a6
:101e9c0001007000800588009a60a8000080fa009c
:101eac00000006000200fa00004f78001e00fb0044
:101ebc00e01c88000080fa00000006000400fa0014
:101ecc00100798000000eb00000f78000d003700a1
:101edc0000000000d11c8000001020000080600079
:101eec000000e000fbff32001e0078009e00900016
:101efc0000804000104078000000fb00e01c8800cf
:101f0c001e0fe8001e0078009e009000008040002c
:101f1c00104078000004e000edff3a000080fa0069
:101f2c00000006000200fa00004f78001e00fb00c3
:101f3c00901d88000080fa00000006000400fa00e2
:101f4c00100798000000eb00000f78000d00370020
:101f5c0000000000811d8000001020000080600047
:101f6c000000e000fbff32001e0078009e00900095
:101f7c0000804000104078000000fb00901d88009d
:101f8c001e0fe8001e0078009e00900000804000ac
:101f9c00104078000004e000edff3a000080fa00e9
:101fac00000006000200fa0050ff0700e0c020000d
:101fbc008040eb00014878000000eb006040880096
:101fcc000000eb0040408800e08020008040eb00e7
:101fdc0001487800803e20001e000700303380004e
:101fec007000600000f0a7000000ea000000e900ab
:101ffc004f00de00004078000080fb0061006000b4
:10200c004400dd0032338000f1fe2f0081006100be
:10201c00010070003033880020408000e10f500038
:10202c0001003a0056fd0700200320009ef907002e
:10203c00000f7800e080200013ff0700000f7800ed
:10204c001e0078009dff0700206728009bff0700fb
:10205c00e0ff37000600fa00200798002e009000e1
:10206c0000004000000f78000a003700c01120006b
:10207c0010079800030037001e0090000000e900d4
:10208c00100798001e0090000000e000faff3c00d2
:10209c001e0fe9001e0078000000e000f3ff3c007a
:1020ac000080fa00000006000400fa0020479800a7
:1020bc00200020007cf90700000f78001e0078003b
:1020cc00ae409000014878001e00e8008040eb0014
:1020dc00014878001e0078000080fa00000006001d
:020000040000fa
:1020ec00060800000200000082000000e803000067
:1020fc000008000006000000800000000808000036
:10210c000804000080000000140c00000200000015
:10211c008200000004000000100c0000040000000d
:10212c0080000000160c000002000000800000007f
:04213c00000000009f
:020000040000fa
:020000040005f5
:045e0000ffff0000a0
:020000040000fa
:020000040005f5
:045e2000ffffff0081
:020000040000fa
:020000040005f5
:045e3000f8ffff0078
:020000040000fa
:020000040005f5
:045e3800b7ffff00b1
:020000040000fa
:020000040005f5
:045e40009fffff00c1
:020000040000fa
:020000040005f5
:045e4800ffffff0059
:020000040000fa
:020000040005f5
:045e5000dfffff0071
:020000040000fa
:020000040005f5
:045e5800ffffff0049
:00000001FF
