:020000040000fa
:080000000001040000000000f3
:020000040000fa
:04000800a60200004c
:020000040000fa
:04000c00a602000048
:020000040000fa
:04001000a602000044
:020000040000fa
:04001400a602000040
:020000040000fa
:04001800a60200003c
:020000040000fa
:04001c00a602000038
:020000040000fa
:04002000a602000034
:020000040000fa
:04002400a602000030
:020000040000fa
:04002800a60200002c
:020000040000fa
:04002c00a602000028
:020000040000fa
:04003000a602000024
:020000040000fa
:04003400a602000020
:020000040000fa
:04003800a60200001c
:020000040000fa
:04003c00a602000018
:020000040000fa
:04004000a602000014
:020000040000fa
:04004400a602000010
:020000040000fa
:04004800a60200000c
:020000040000fa
:04004c00a602000008
:020000040000fa
:04005000a602000004
:020000040000fa
:0400540004020000a2
:020000040000fa
:04005800a6020000fc
:020000040000fa
:04005c00a6020000f8
:020000040000fa
:04006000a6020000f4
:020000040000fa
:04006400a6020000f0
:020000040000fa
:04006800a6020000ec
:020000040000fa
:04006c00a6020000e8
:020000040000fa
:04007000a6020000e4
:020000040000fa
:040074004a0200003c
:020000040000fa
:04007800a6020000dc
:020000040000fa
:04007c00a6020000d8
:020000040000fa
:04008000a6020000d4
:020000040000fa
:04008400a6020000d0
:020000040000fa
:04008800a6020000cc
:020000040000fa
:04008c00a6020000c8
:020000040000fa
:04009000a6020000c4
:020000040000fa
:04009400a6020000c0
:020000040000fa
:04009800a6020000bc
:020000040000fa
:04009c00a6020000b8
:020000040000fa
:0400a0002602000034
:020000040000fa
:0400a400a6020000b0
:020000040000fa
:0400a800a6020000ac
:020000040000fa
:0400ac00a6020000a8
:020000040000fa
:0400b000a6020000a4
:020000040000fa
:0400b400a6020000a0
:020000040000fa
:0400b800a60200009c
:020000040000fa
:0400bc00a602000098
:020000040000fa
:0400c000a602000094
:020000040000fa
:0400c400a602000090
:020000040000fa
:0400c800a60200008c
:020000040000fa
:0400cc00a602000088
:020000040000fa
:0400d000a602000084
:020000040000fa
:0400d400a602000080
:020000040000fa
:0400d800a60200007c
:020000040000fa
:0400dc00a602000078
:020000040000fa
:0400e000a602000074
:020000040000fa
:0400e400a602000070
:020000040000fa
:0400e800a60200006c
:020000040000fa
:0400ec00a602000068
:020000040000fa
:0400f000a602000064
:020000040000fa
:0400f400a602000060
:020000040000fa
:0400f800a60200005c
:020000040000fa
:0400fc00a602000058
:020000040000fa
:04010000a602000053
:020000040000fa
:04010400a60200004f
:020000040000fa
:04010800a60200004b
:020000040000fa
:04010c00a602000047
:020000040000fa
:04011000a602000043
:020000040000fa
:04011400a60200003f
:020000040000fa
:04011800a60200003b
:020000040000fa
:04011c00a602000037
:020000040000fa
:04012000a602000033
:020000040000fa
:04012400a60200002f
:020000040000fa
:04012800a60200002b
:020000040000fa
:04012c00a602000027
:020000040000fa
:04013000a602000023
:020000040000fa
:04013400a60200001f
:020000040000fa
:04013800a60200001b
:020000040000fa
:04013c00a602000017
:020000040000fa
:04014000a602000013
:020000040000fa
:04014400a60200000f
:020000040000fa
:04014800a60200000b
:020000040000fa
:04014c00a602000007
:020000040000fa
:04015000a602000003
:020000040000fa
:04015400a6020000ff
:020000040000fa
:04015800a6020000fb
:020000040000fa
:04015c00a6020000f7
:020000040000fa
:04016000a6020000f3
:020000040000fa
:04016400a6020000ef
:020000040000fa
:04016800a6020000eb
:020000040000fa
:04016c00a6020000e7
:020000040000fa
:04017000a6020000e3
:020000040000fa
:04017400a6020000df
:020000040000fa
:04017800a6020000db
:020000040000fa
:04017c00a6020000d7
:020000040000fa
:04018000a6020000d3
:020000040000fa
:04018400a6020000cf
:020000040000fa
:04018800a6020000cb
:020000040000fa
:04018c00a6020000c7
:020000040000fa
:04019000a6020000c3
:020000040000fa
:04019400a6020000bf
:020000040000fa
:04019800a6020000bb
:020000040000fa
:04019c00a6020000b7
:020000040000fa
:0401a000a6020000b3
:020000040000fa
:0401a400a6020000af
:020000040000fa
:0401a800a6020000ab
:020000040000fa
:0401ac00a6020000a7
:020000040000fa
:0401b000a6020000a3
:020000040000fa
:0401b400a60200009f
:020000040000fa
:0401b800a60200009b
:020000040000fa
:0401bc00a602000097
:020000040000fa
:0401c000a602000093
:020000040000fa
:0401c400a60200008f
:020000040000fa
:0401c800a60200008b
:020000040000fa
:0401cc00a602000087
:020000040000fa
:0401d000a602000083
:020000040000fa
:0401d400a60200007f
:020000040000fa
:0401d800a60200007b
:020000040000fa
:0401dc00a602000077
:020000040000fa
:0401e000a602000073
:020000040000fa
:0401e400a60200006f
:020000040000fa
:0401e800a60200006b
:020000040000fa
:0401ec00a602000067
:020000040000fa
:0401f000a602000063
:020000040000fa
:0401f400a60200005f
:020000040000fa
:0401f800a60200005b
:020000040000fa
:0401fc00a602000057
:020000040000fa
:100200008f8020000e7f24000e0188000000000077
:10021000000020000000e000020032000001200089
:100220002002880014000700ca0007000000e00058
:1002300003003a0000c62000010020000200370041
:100240000000200001002000810f7000010032003a
:1002500014000700000020000000e000020032004f
:100260000000020000000000020c0200000000007c
:100270000040da000000fe004440a900601c20009d
:100280000000e00003003200002020009001880000
:100290004440a800000006008a1f78008b1f7800e9
:1002a00000000600a1028800800478000000eb0036
:1002b0001f003700e284440054a0b4009905ba003e
:1002c000e284440054a0b4009906ba00e2844400d9
:1002d00054a0b4000006eb00476fde00fd07b2003b
:1002e000ae018800636ce10003003a00eaff0700fa
:1002f0000000eb000e003700606ce10008003a00df
:10030000004deb000a05e800020039003420ec0043
:100310000af0a0008b05e900f9ff3e000400370059
:100320006168e100010032000086eb000b0007006d
:1003300019c7ba001905ba000e04e00003003a001c
:100340000a00e000dbff3a0000000600fe07b200f2
:10035000ae0288008a047800f5ff37000cd0a300b5
:10036000e20f4d001c00390089027800354dba00bb
:100370000a05e800020039003420ec000af0a00071
:100380008b05e9000f003200254dba000a05e80090
:10039000020039003420ec000af0a0008b05e900cf
:1003a000080032000c00e0000600320015cdba0053
:1003b0000a05e800020039003420ec000af0a00031
:1003c0008b05e9008984e80054a0b4000b00e0002c
:1003d000e2ff3a00000006009902ba00055d7800cd
:1003e0008b05e900f7ff3200c82ade00055d7800c2
:1003f0008b05e900f3ff32000c00e000f1ff320052
:1004000019ddba00eeff37003600f800809fbe000d
:10041000829fbe00849fbe00869fbe000000fa003f
:100420008101070040462800e70107008960a90014
:100430000080fa004f03be004f02be004f01be0015
:100440004f00be003600f900004006003600f800fc
:10045000809fbe00829fbe00849fbe00869fbe001c
:100460000200fa00a01d8000004f78001e407800b6
:10047000c40407008bc0a9000080fa004f03be002f
:100480004f02be004f01be004f00be003600f90013
:10049000004006003600f800809fbe00829fbe002c
:1004a000849fbe00869fbe000000fa0021348000b9
:1004b00000002200008060000000e0000300320025
:1004c000100020009a030700170037002134800035
:1004d00000002100008060000000e0000300320006
:1004e00020002000920307000f0037002134800015
:1004f00000802000008060000000e0000300320067
:10050000300020008a0307000700370021348000f4
:1005100000402000008060000000e0000200320087
:1005200040002000820307008426ef008a60a900b3
:100530000080fa004f03be004f02be004f01be0014
:100540004f00be003600f900004006000040da000f
:080550000000fe0000000500a0
:020000040000fa
:10055800312e000057610000746500007220000011
:1005680020200000322e0000446100007461000069
:10057800003300002e570000694600006920000083
:1005880020200000203400002e4d00006f72000073
:1005980065000000312e00004f4e000020200000b2
:1005a8002020000020200000322e00004f460000ce
:1005b80046000000332e000041750000746f0000f3
:1005c8002020000020200000342e0000426100009e
:1005d800636b0000003100002e530000686f0000bc
:1005e8007720000020200000203200002e48000064
:1005f8006964000065000000332e00004e2f0000e3
:10060800412000002020000020200000342e00009f
:1006180042610000636b0000003100002e530000af
:10062800686f000077200000322e0000436f000042
:100638006e6e00006563000074000000332e000039
:10064800436f00006e6e00003f2000002020000075
:10065800342e000042610000636b0000004d000072
:100668006f720000652000006d6500006e75000067
:100678002e2e00002e000000332e0000496e0000d0
:10068800666f00002020000020200000342e0000ab
:1006980042610000636b0000003100002e4e000034
:1006a8006574000031200000202000002032000086
:1006b8002e4e00006574000032000000332e00004a
:1006c8004e65000074330000202000002020000048
:1006d800342e000042610000636b0000002000001f
:1006e8002020000020200000202000002020000002
:1006f8002020000020200000202000002000000012
:100708005761000074650000726900006e670000a0
:10071800204500006e610000626c00006564000006
:10072800005700006174000065720000207300002b
:100738006875000074200000646f0000776e000088
:100748002100000041750000746f00002d77000043
:1007580061740000657200003a2000004f4e0000ee
:1007680000410000757400006f2d000077610000e3
:1007780074650000723a0000204f000046460000f1
:1007880000540000656d0000702000004c750000ea
:10079800782000004d6f0000697300007475000038
:1007a8007200000031300000302e0000304600009a
:1007b80020310000303200003320000031300000ca
:1007c80030250000003100002e2000004e6500009a
:1007d800747700006f7200006b3100000032000077
:1007e8002e2000004e650000747700006f72000034
:1007f8006b320000003300002e2000004e65000020
:10080800747700006f7200006b330000004e000028
:1008180065740000776f0000726b000020310000e3
:1008280000730000656c00006563000074650000db
:10083800642e00002e2e0000004e0000657400009b
:10084800776f0000726b000020320000004e00003d
:1008580065740000776f0000726b000020330000a1
:10086800004300006f6d0000696e00006720000003
:10087800536f00006f6e0000003100003d3e000025
:10088800546f000070200000323d00003e5400000c
:100898006f7000002d4d000064000000333d000023
:1008a8003e4200006f7400002d4d000064200000df
:1008b800343d00003e4200006f740000000000005c
:1008c800456e000074650000726500006420000039
:0c08d800554100005254000000000000d8
:020000040000fa
:1008e4000000fa00f0002000df03070014c0b3008a
:1008f40013c0b3000041eb008040eb000040eb006c
:1009040030010700a0002000d703070014c0b30083
:1009140013c0b3000041eb008040eb000040eb004b
:100924002801070050002000cf03070014c0b300c3
:1009340013c0b3000041eb008040eb000040eb002b
:1009440020010700a0002000c70307000042eb00bd
:1009540013c0b3000041eb008040eb000040eb000b
:100964001801070050002000bf0307000042eb00fd
:1009740013c0b3000041eb008040eb000040eb00eb
:1009840010010700a0002000b70307000042eb009d
:100994008041eb000041eb0011c0b3000040eb00cc
:1009a4000801070050002000af0307000042eb00dd
:1009b4008041eb000041eb008040eb000040eb0085
:1009c4000001070014c0b30013c0b30012c0b30089
:1009d40011c0b3000040eb00fa00070050002000f3
:1009e400a10307000042eb008041eb000041eb0053
:1009f4008040eb000040eb00f20007000042eb00f7
:100a040013c0b30012c0b3008040eb000040eb0001
:100a1400ec00070050002000930307000080fa0058
:100a2400000006000000fa000042eb008041eb00e9
:100a34000041eb008040eb000040eb00e1000700c8
:100a440014c0b3008041eb000041eb008040eb0098
:100a54000040eb00db000700500020008203070089
:100a64000080fa00000006000000fa000042eb00db
:100a74008041eb000041eb008040eb000040eb00c4
:100a8400d00007000042eb0013c0b3000041eb00ac
:100a94008040eb000040eb00ca000700500020003b
:100aa400710307000080fa00000006000000fa004d
:100ab4000042eb008041eb000041eb0011c0b300a9
:100ac4000040eb00bf0007000042eb008041eb0058
:100ad4000041eb008040eb000040eb00b900070050
:100ae40050002000600307000080fa0000000600a8
:100af4000000fa000042eb008041eb0012c0b3009a
:100b040011c0b3000040eb00ae0007000042eb0050
:100b14008041eb000041eb008040eb000040eb0023
:100b2400a8000700500020004f0307000080fa00cf
:100b3400000006000200fa00004f78001e40780012
:100b44000004e0000f0032000042eb008041eb00a3
:100b54000041eb008040eb000040eb0099000700ef
:100b640014c0b30013c0b30012c0b30011c0b3006b
:100b74000040eb0093000700500020003a030700f8
:100b84000e0037000042eb008041eb000041eb0017
:100b94008040eb000040eb008a0007000042eb00bd
:100ba4008041eb0012c0b30011c0b3000040eb0061
:100bb40084000700500020002b0307000080fa0087
:100bc400000006000a00fa00400798000000eb004d
:100bd40020079800730037000000eb0030079800ee
:100be4006d0037003e0090000000e00030003a0045
:100bf4002e009000ce00900000804000104078004d
:100c04008000fb00000820000080600000f0a700c6
:100c14000000ea000000ea004f00de00004f780008
:100c24002e009000ce00900000804000104078001c
:100c34008000fb00000420000080600000f0a7009a
:100c44000000ea000000ea004f00de0010479800b0
:100c54002e009000ce0090000080400010407800ec
:100c64008000fb00000220000080600000f0a7006c
:100c74000000ea000000ea004f00de002047980070
:100c84002e009000ce0090000080400010407800bc
:100c94000000fb007000600000f0a7000000ea0004
:100ca4000000ea004f00de00304798002f003700b4
:100cb4002e009000ce00900000804000104078008c
:100cc4000000fb006800600000f0a7000000ea00dc
:100cd4000000ea004f00de00004f78002e00900074
:100ce400ce00900000804000104078000000fb001f
:100cf4006400600000f0a7000000ea000000ea00c1
:100d04004f00de00104798002e009000ce009000a7
:100d140000804000104078000000fb00620060008a
:100d240000f0a7000000ea000000ea004f00de0027
:100d3400204798002e009000ce00900000804000d4
:100d4400104078000000fb006100600000f0a70084
:100d54000000ea000000ea004f00de00304798007f
:100d64002e0090000000e800200798003e4290000a
:100d7400ae4190001e4190009e40780010c0b30028
:100d84001000070050002000b70207003e0090004a
:100d94000000e800300798003e009000e10f50008a
:100da40090ff34002e009000ce00900000804000a0
:100db400104078000004e00087ff3a000080fa0049
:100dc400000006000600fa00004f78001147980062
:100dd4002247980033479800444798001e80fb0040
:100de4004f00dd00d2338000f1ff27008100610055
:100df40001007000d03388001e4090000080fb008a
:100e0400610060004600dd00d2338000f1fb2f005a
:100e14008100610001007000d03388002e409000f2
:100e24000080fb00610060004700dd00d2338000d9
:100e3400f1f72f008100610001007000d0338800b9
:100e44003e4090000080fb00610060004800dd002f
:100e5400d2338000f1ef2f008100610001007000a7
:100e6400d03388004e4090000080fb006100600099
:100e74004900dd00d2338000f1df2f0081006100e2
:100e840001007000d03388007bc6a8007bc6a9008f
:100e94000080fa00000006000600fa00004f780007
:100ea4001147980022479800334798004447980018
:100eb4001e80fb004f00dd00d2338000f1ff2700cd
:100ec4008100610001007000d03388001e40900052
:100ed4000080fb00610060004600dd00d23380002a
:100ee400f1fb2f008100610001007000d033880005
:100ef4002e4090000080fb00610060004700dd0090
:100f0400d2338000f1f72f008100610001007000ee
:100f1400d03388003e4090000080fb0061006000f8
:100f24004800dd00d2338000f1ef2f008100610022
:100f340001007000d03388004e4090000080fb0018
:100f4400610060004900dd00d2338000f1df2f0032
:100f54008100610001007000d03388007bc6a800c6
:100f64007bc6a9000080fa00000006000000fa0019
:100f74000028ef00abfe0700c02a280011ff07007d
:100f8400dbfe0700d02b28000eff07000040eb001b
:100f9400e8fe07000080fa00000006000000fa00e6
:100fa40010002000004088009efe0700e02c28006e
:100fb40004ff0700cefe0700e02d280001ff070014
:100fc4000080fa00000006000000fa002000200063
:100fd4000040880093fe0700f02e2800f9fe070069
:100fe400c3fe070000302800f6fe07000080fa0068
:100ff400000006000000fa003000200000408800d5
:1010040088fe070010312800eefe0700b8fe070036
:1010140020322800ebfe07000080fa0000000600e2
:101024000000fa0040002000004088007dfe070018
:1010340030332800e3fe0700adfe0700003428002b
:10104400e0fe07000080fa00000006000000fa003d
:10105400500020000040880072fe07001035280070
:10106400d8fe0700a2fe070020362800d5fe0700a0
:101074000080fa00000006000000fa009cfe070051
:1010840030372800cffe070099fe070040382800bb
:10109400ccfe070080bb2000f3010700bfff070060
:1010a4000080fa00000006000000fa0090fe07002d
:1010b40030372800c3fe07008dfe07005039280092
:1010c400c0fe070080bb2000e7010700b3ff070054
:1010d4000080fa00000006000000fa0010408000c2
:1010e40000f0a7000000ea000000e9004f00de0065
:1010f40010408800104080000000e0000a00320028
:101104006afe070030372800aefe070067fe0700be
:10111400603a2800abfe070080bb2000d201070024
:101124009eff07000900370060fe070030372800e3
:10113400a4fe07005dfe0700503b2800a1fe070047
:1011440080bb2000c801070094ff07000080fa005c
:10115400000006000000fa0032fe0700503c2800a0
:1011640098fe070062fe07000800370030372800a9
:1011740094fe07005efe0700603d280091fe070014
:10118400a00f2000b801070059fe0700204080008e
:101194000000e000f5ff3a008bff07000080fa0032
:1011a400000006000000fa001efe070050fe0700c3
:1011b400703e280083fe0700c05d2000aa010700de
:1011c40018fe0700703e28007efe070048fe070058
:1011d400303f28007bfe0700c05d2000a20107000d
:1011e40010fe0700303f280076fe070040fe07008f
:1011f400f03f280073fe0700c05d20009a0107003d
:1012040008fe0700f03f28006efe0700c05d2000c6
:101214009501070003fe0700803e200092010700ad
:1012240074ff07000080fa00000006000200fa00c4
:10123400000f78001e007800e20f50000e0032000c
:10124400e30f500016003200e10f50001f003a0077
:10125400f4fd0700b04028005afe070024fe0700f2
:101264005041280057fe0700007d20007e01070042
:1012740060ff070016003700eafd0700104228004f
:1012840050fe07001afe0700504128004dfe0700db
:10129400007d20007401070056ff07000c00370092
:1012a400e0fd0700b042280046fe070010fe0700dc
:1012b4005041280043fe0700007d20006a0107001a
:1012c4004cff070000000000010037000000000090
:1012d4000080fa00000006000000fa00d1fd0700bb
:1012e4005043280037fe0700c05d20005e01070060
:1012f40040ff07000080fa00000006000000fa002a
:10130400c8fd0700104428002efe0700f8fd070062
:10131400204528002bfe0700409c200052010700b6
:101324003fff07000080fa00000006000200fa00f8
:10133400000f780000408000e20f500036003200b9
:10134400e20f500005003c000000e0000a003200fb
:10135400e10f50001c0032007d003700e40f500004
:1013640050003200e40f50003b003500e50f500000
:1013740056003200760037001e007800e10f50005e
:1013840002003a0005ff0700710037001e007800d4
:10139400e20f500002003a000bff07006c00370018
:1013a4001e007800e30f500002003a0011ff07000e
:1013b400670037001e007800e40f500059003a001f
:1013c40017ff0700620037001e007800e10f50008d
:1013d40002003a0028ff07005d0037001e00780075
:1013e400e20f500002003a002fff070058003700b8
:1013f4001e007800e30f500002003a0036ff070099
:10140400530037001e007800e40f500047003a00f4
:10141400d6fe07004e0037001e007800e10f500092
:1014240003003a00100020002040880048003700e4
:101434001e007800e20f500002003a000428ef007a
:10144400430037001e007800e40f500039003a00d2
:10145400c6fe07003e0037001e007800e10f500072
:1014640002003a004fff0700090037001e00780011
:10147400e20f500002003a00f4fe070004003700b7
:101484001e007800e30f500001003a0092ff0700ad
:101494001e007800e40f500028003a00b3fe070055
:1014a4002b0037001e007800e30f500002003a00c2
:1014b40092ff0700260037001e007800e40f50005a
:1014c40020003a00a9fe0700210037001e00780022
:1014d400e10f500003003a001000200053ff070002
:1014e4000b0037001e007800e20f500003003a00a2
:1014f400200020004dff0700050037001e00780083
:10150400e30f500002003a003000200047ff0700bc
:101514001e007800e40f50000c003a00b5fe0700ee
:101524000b00370000000000090037000000000035
:10153400070037000000000005003700000000002d
:101544000300370000000000010037000000000025
:101554000080fa00000006000000fa000500070001
:101564000c000700410007004c0007000080fa004f
:10157400000006000000fa007a26ef000080eb006d
:10158400b03388007e26ef006286a9000080fa004e
:10159400000006000000fa009823ef009a23ef00f1
:1015a4007646a9007666a800a13d800000fc2f00c5
:1015b400008060003000b300a03d8800b13e800090
:1015c40000f82f00008060003000b300b03e8800b7
:1015d4008960a90061058000f0ff28008080600018
:1015e4000000230001007000600588009960a800d5
:1015f40090012000001d880099e3a8009b43a800e7
:10160400ae23ef00b023ef00b13d800000fc2f00bb
:10161400008060000020a000b03d8800c13e800032
:10162400f00f28008080600000502000010070004e
:10163400c03e88008bc0a900b1058000f08f2f0048
:10164400808060000030200001007000b005880038
:101654009bc0a80090012000b01d8800afe3a80043
:10166400b143a8000080fa00000006000000fa0060
:1016740077e6a90077c6a90076c6a90076e6a90090
:101684007706a9007726a90095fc0700e5fc07006a
:1016940036fe07000080fa00000006000000fa0091
:1016a40077a6a8007786a8007766a8007746a800e2
:1016b4008346a8008366a8008386a80083a6a800a2
:1016c4008746a8008766a8008786a80087a6a80082
:1016d4005fe6a8008426ef008a60a90081058000e7
:1016e400f0ff2800808060000000230001007000eb
:1016f400800588009a60a8000080fa0000000600b7
:101704000200fa00004f78001e00fb00e01c880075
:101714000080fa00000006000400fa001007980098
:101724000000eb00000f78000d00370000000000ff
:10173400d11c800000102000008060000000e00048
:10174400fbff32001e0078009e00900000804000e5
:10175400104078000000fb00e01c88001e0fe80029
:101764001e0078009e009000008040001040780029
:101774000004e000edff3a000080fa0000000600db
:101784000200fa00004f78001e00fb00901d880044
:101794000080fa00000006000400fa001007980018
:1017a4000000eb00000f78000d003700000000007f
:1017b400811d800000102000008060000000e00017
:1017c400fbff32001e0078009e0090000080400065
:1017d400104078000000fb00901d88001e0fe800f8
:1017e4001e0078009e0090000080400010407800a9
:1017f4000004e000edff3a000080fa00000006005b
:101804000000fa0054ff0700010037000000000048
:10181400a00f200014000700303380007000600027
:1018240000f0a7000000ea000000e9004f00de001d
:10183400004078000080fb00610060004400dd008f
:1018440032338000f1fe2f0081006100010070003e
:1018540030338800204080000000e000ebff3200bd
:101864003cfe0700eaff37000600fa002007980054
:101874002e00900000004000000f78000a0037009e
:10188400c011200010079800030037001e009000cc
:101894000000e900100798001e0090000000e0001e
:1018a400faff3c001e0fe9001e0078000000e00073
:0c18b400f3ff3c000080fa00000006007a
:020000040000fa
:1018c000060800000200000082000000e80300009b
:1018d000000800000600000080000000000000007a
:020000040000fa
:020000040005f5
:045e0000ffff0000a0
:020000040000fa
:020000040005f5
:045e2000ffffff0081
:020000040000fa
:020000040005f5
:045e3000f8ffff0078
:020000040000fa
:020000040005f5
:045e3800b7ffff00b1
:020000040000fa
:020000040005f5
:045e40009fffff00c1
:020000040000fa
:020000040005f5
:045e4800ffffff0059
:020000040000fa
:020000040005f5
:045e5000dfffff0071
:020000040000fa
:020000040005f5
:045e5800ffffff0049
:00000001FF
