:020000040000fa
:080000000001040000000000f3
:020000040000fa
:04000800c002000032
:020000040000fa
:04000c00c00200002e
:020000040000fa
:04001000c00200002a
:020000040000fa
:04001400c002000026
:020000040000fa
:04001800c002000022
:020000040000fa
:04001c00c00200001e
:020000040000fa
:04002000c00200001a
:020000040000fa
:04002400c002000016
:020000040000fa
:04002800c002000012
:020000040000fa
:04002c00c00200000e
:020000040000fa
:04003000c00200000a
:020000040000fa
:04003400c002000006
:020000040000fa
:04003800c002000002
:020000040000fa
:04003c00c0020000fe
:020000040000fa
:04004000c0020000fa
:020000040000fa
:04004400c0020000f6
:020000040000fa
:04004800c0020000f2
:020000040000fa
:04004c00c0020000ee
:020000040000fa
:04005000c0020000ea
:020000040000fa
:0400540004020000a2
:020000040000fa
:04005800c0020000e2
:020000040000fa
:04005c00c0020000de
:020000040000fa
:04006000c0020000da
:020000040000fa
:04006400c0020000d6
:020000040000fa
:04006800c0020000d2
:020000040000fa
:04006c00c0020000ce
:020000040000fa
:04007000c0020000ca
:020000040000fa
:040074006402000022
:020000040000fa
:04007800c0020000c2
:020000040000fa
:04007c00c0020000be
:020000040000fa
:04008000c0020000ba
:020000040000fa
:04008400c0020000b6
:020000040000fa
:04008800c0020000b2
:020000040000fa
:04008c00c0020000ae
:020000040000fa
:04009000c0020000aa
:020000040000fa
:04009400c0020000a6
:020000040000fa
:04009800c0020000a2
:020000040000fa
:04009c00c00200009e
:020000040000fa
:0400a0002602000034
:020000040000fa
:0400a400c002000096
:020000040000fa
:0400a800c002000092
:020000040000fa
:0400ac00c00200008e
:020000040000fa
:0400b000c00200008a
:020000040000fa
:0400b400c002000086
:020000040000fa
:0400b800c002000082
:020000040000fa
:0400bc00c00200007e
:020000040000fa
:0400c000c00200007a
:020000040000fa
:0400c400c002000076
:020000040000fa
:0400c800c002000072
:020000040000fa
:0400cc00c00200006e
:020000040000fa
:0400d000c00200006a
:020000040000fa
:0400d400c002000066
:020000040000fa
:0400d800c002000062
:020000040000fa
:0400dc00c00200005e
:020000040000fa
:0400e000c00200005a
:020000040000fa
:0400e400c002000056
:020000040000fa
:0400e800c002000052
:020000040000fa
:0400ec00c00200004e
:020000040000fa
:0400f000c00200004a
:020000040000fa
:0400f400c002000046
:020000040000fa
:0400f800c002000042
:020000040000fa
:0400fc00c00200003e
:020000040000fa
:04010000c002000039
:020000040000fa
:04010400c002000035
:020000040000fa
:04010800c002000031
:020000040000fa
:04010c00c00200002d
:020000040000fa
:04011000c002000029
:020000040000fa
:04011400c002000025
:020000040000fa
:04011800c002000021
:020000040000fa
:04011c00c00200001d
:020000040000fa
:04012000c002000019
:020000040000fa
:04012400c002000015
:020000040000fa
:04012800c002000011
:020000040000fa
:04012c00c00200000d
:020000040000fa
:04013000c002000009
:020000040000fa
:04013400c002000005
:020000040000fa
:04013800c002000001
:020000040000fa
:04013c00c0020000fd
:020000040000fa
:04014000c0020000f9
:020000040000fa
:04014400c0020000f5
:020000040000fa
:04014800c0020000f1
:020000040000fa
:04014c00c0020000ed
:020000040000fa
:04015000c0020000e9
:020000040000fa
:04015400c0020000e5
:020000040000fa
:04015800c0020000e1
:020000040000fa
:04015c00c0020000dd
:020000040000fa
:04016000c0020000d9
:020000040000fa
:04016400c0020000d5
:020000040000fa
:04016800c0020000d1
:020000040000fa
:04016c00c0020000cd
:020000040000fa
:04017000c0020000c9
:020000040000fa
:04017400c0020000c5
:020000040000fa
:04017800c0020000c1
:020000040000fa
:04017c00c0020000bd
:020000040000fa
:04018000c0020000b9
:020000040000fa
:04018400c0020000b5
:020000040000fa
:04018800c0020000b1
:020000040000fa
:04018c00c0020000ad
:020000040000fa
:04019000c0020000a9
:020000040000fa
:04019400c0020000a5
:020000040000fa
:04019800c0020000a1
:020000040000fa
:04019c00c00200009d
:020000040000fa
:0401a000c002000099
:020000040000fa
:0401a400c002000095
:020000040000fa
:0401a800c002000091
:020000040000fa
:0401ac00c00200008d
:020000040000fa
:0401b000c002000089
:020000040000fa
:0401b400c002000085
:020000040000fa
:0401b800c002000081
:020000040000fa
:0401bc00c00200007d
:020000040000fa
:0401c000c002000079
:020000040000fa
:0401c400c002000075
:020000040000fa
:0401c800c002000071
:020000040000fa
:0401cc00c00200006d
:020000040000fa
:0401d000c002000069
:020000040000fa
:0401d400c002000065
:020000040000fa
:0401d800c002000061
:020000040000fa
:0401dc00c00200005d
:020000040000fa
:0401e000c002000059
:020000040000fa
:0401e400c002000055
:020000040000fa
:0401e800c002000051
:020000040000fa
:0401ec00c00200004d
:020000040000fa
:0401f000c002000049
:020000040000fa
:0401f400c002000045
:020000040000fa
:0401f800c002000041
:020000040000fa
:0401fc00c00200003d
:020000040000fa
:100200006f8320000e7f24000e0188000000000094
:10021000000020000000e000020032000001200089
:100220002002880014000700d70007000000e0004b
:1002300003003a00e0db200001002000020037004c
:100240000000200001002000810f7000010032003a
:1002500014000700000020000000e000020032004f
:1002600000000200000000000c0d02000000000071
:100270000040da000000fe004440a90000232000f6
:100280000000e00003003200002020009001880000
:100290004440a800000006008a1f78008b1f7800e9
:1002a00000000600a1028800800478000000eb0036
:1002b0001f003700e284440054a0b4009905ba003e
:1002c000e284440054a0b4009906ba00e2844400d9
:1002d00054a0b4000006eb00476fde00fd07b2003b
:1002e000ae018800636ce10003003a00eaff0700fa
:1002f0000000eb000e003700606ce10008003a00df
:10030000004deb000a05e800020039003420ec0043
:100310000af0a0008b05e900f9ff3e000400370059
:100320006168e100010032000086eb000b0007006d
:1003300019c7ba001905ba000e04e00003003a001c
:100340000a00e000dbff3a0000000600fe07b200f2
:10035000ae0288008a047800f5ff37000cd0a300b5
:10036000e20f4d001c00390089027800354dba00bb
:100370000a05e800020039003420ec000af0a00071
:100380008b05e9000f003200254dba000a05e80090
:10039000020039003420ec000af0a0008b05e900cf
:1003a000080032000c00e0000600320015cdba0053
:1003b0000a05e800020039003420ec000af0a00031
:1003c0008b05e9008984e80054a0b4000b00e0002c
:1003d000e2ff3a00000006009902ba00055d7800cd
:1003e0008b05e900f7ff3200c82ade00055d7800c2
:1003f0008b05e900f3ff32000c00e000f1ff320052
:1004000019ddba00eeff37003600f800809fbe000d
:10041000829fbe00849fbe00869fbe000000fa003f
:10042000c3010700804e2800290207008960a90047
:100430000080fa004f03be004f02be004f01be0015
:100440004f00be003600f90000400600809fbe004d
:100450000200fa00a01d8000004f78001e407800c6
:10046000ed4f500008003a004040800050408800a6
:100470004083200011c0b300014878000000eb0069
:10048000404088000c00370041408000c0802000c0
:10049000008040001e487800404080000000e800d6
:1004a00040408800404080000000e00002003a0028
:1004b0009e407800114798008bc0a9000080fa0088
:1004c0004f00be00004006003600f800809fbe00ce
:1004d000829fbe00849fbe00869fbe000000fa007f
:1004e0002134800000002200008060000000e00055
:1004f0000300320010002000fd0307001700370042
:100500002134800000002100008060000000e00035
:100510000300320020002000f50307000f00370021
:100520002134800000802000008060000000e00096
:100530000300320030002000ed0307000700370001
:100540002134800000402000008060000000e000b6
:100550000200320040002000e50307008426ef007f
:100560008a60a9000080fa004f03be004f02be005f
:100570004f01be004f00be003600f90000400600eb
:0c0580000040da000000fe000000050052
:020000040000fa
:10058c00312e0000576100007465000072200000dd
:10059c0020200000322e0000446100007461000035
:1005ac00003300002e57000069460000692000004f
:1005bc0020200000203400002e4d00006f7200003f
:1005cc0065000000312e00004f4e0000202000007e
:1005dc002020000020200000322e00004f4600009a
:1005ec0046000000332e000041750000746f0000bf
:1005fc002020000020200000342e0000426100006a
:10060c00636b0000003100002e530000686f000087
:10061c007720000020200000203200002e4800002f
:10062c006964000065000000332e00004e2f0000ae
:10063c00412000002020000020200000342e00006b
:10064c0042610000636b0000003100002e5300007b
:10065c00686f000077200000322e0000436f00000e
:10066c006e6e00006563000074000000332e000005
:10067c00436f00006e6e00003f2000002020000041
:10068c00342e000042610000636b0000003100005a
:10069c002e530000657400007570000020200000cf
:1006ac00203200002e4e00002f41000000330000cd
:1006bc002e4900006e6600006f2000002020000014
:1006cc00203400002e420000616300006b0000002b
:1006dc00312e00004e650000743100002020000017
:1006ec0020200000322e00004e6500007432000005
:1006fc00003300002e4e0000657400003320000013
:10070c0020200000203400002e4200006163000015
:10071c006b000000312e0000566900006577000068
:10072c0020200000322e0000436f00006e6e00008f
:10073c006563000074000000332e00004e2f000093
:10074c004120000020200000203400002e42000038
:10075c00616300006b0000002020000020200000de
:10076c00202000002020000020200000202000007d
:10077c0020200000202000000057000061740000c1
:10078c0065720000696e000067200000456e000075
:10079c00616200006c65000064000000576100009d
:1007ac00746500007220000073680000757400000e
:1007bc00206400006f7700006e21000000410000f3
:1007cc00757400006f2d00007761000074650000e7
:1007dc00723a0000204f00004e00000041750000ee
:1007ec00746f00002d7700006174000065720000ca
:1007fc003a2000004f4600004600000054650000ff
:10080c006d700000204c000075780000204d000039
:10081c006f690000737400007572000000310000f5
:10082c00303000002e300000462000003130000037
:10083c003233000020310000303000002500000071
:10084c00312e0000204e000065740000776f000010
:10085c00726b000031000000322e0000204e0000b0
:10086c0065740000776f0000726b000032000000ae
:10087c00332e0000204e000065740000776f0000de
:10088c00726b0000330000004e65000074770000ae
:10089c006f7200006b2000003100000073650000d7
:1008ac006c65000063740000656400002e2e00006f
:1008bc002e0000004e650000747700006f7200007f
:1008cc006b200000320000004e65000074770000c1
:1008dc006f7200006b20000033000000436f0000bb
:1008ec006d6900006e670000205300006f6f000000
:1008fc006e000000313d00003e5400006f7000009f
:10090c00203200003d3e0000546f0000702d0000ae
:10091c004d640000003300003d3e0000426f0000bb
:10092c00742d00004d640000203400003d3e00009a
:10093c00426f0000740000004e2f000041000000c8
:10094c0038300000314600003132000042350000e2
:10095c003844000032460000004300006f6e000077
:10096c006e65000063740000696e00006720000073
:10097c00696e0000003300000032000000310000fe
:10098c0000000000240000002424000000460000a9
:10099c000d000000432c0000302c0000383000000b
:1009ac00314600003132000042350000384400006e
:1009bc00324600000d000000536500006e7400000c
:1009cc0000000000456e00007465000072650000b8
:1009dc00642000005541000052540000000000004b
:020000040000fa
:1009ec000000fa00f00020003c04070014c0b30023
:1009fc0013c0b3000041eb008040eb000040eb0063
:100a0c0030010700a00020003404070014c0b3001c
:100a1c0013c0b3000041eb008040eb000040eb0042
:100a2c0028010700500020002c04070014c0b3005c
:100a3c0013c0b3000041eb008040eb000040eb0022
:100a4c0020010700a0002000240407000042eb0056
:100a5c0013c0b3000041eb008040eb000040eb0002
:100a6c0018010700500020001c0407000042eb0096
:100a7c0013c0b3000041eb008040eb000040eb00e2
:100a8c0010010700a0002000140407000042eb0036
:100a9c008041eb000041eb0011c0b3000040eb00c3
:100aac0008010700500020000c0407000042eb0076
:100abc008041eb000041eb008040eb000040eb007c
:100acc000001070014c0b30013c0b30012c0b30080
:100adc0011c0b3000040eb00fa00070050002000ea
:100aec00fe0307000042eb008041eb000041eb00ed
:100afc008040eb000040eb00f20007000042eb00ee
:100b0c0013c0b30012c0b3008040eb000040eb00f8
:100b1c00ec00070050002000f00307000080fa00f2
:100b2c00000006000000fa000042eb008041eb00e0
:100b3c000041eb008040eb000040eb00e1000700bf
:100b4c0014c0b3008041eb000041eb008040eb008f
:100b5c000040eb00db00070050002000df03070023
:100b6c000080fa00000006000000fa000042eb00d2
:100b7c008041eb000041eb008040eb000040eb00bb
:100b8c00d00007000042eb0013c0b3000041eb00a3
:100b9c008040eb000040eb00ca0007005000200032
:100bac00ce0307000080fa00000006000000fa00e7
:100bbc000042eb008041eb000041eb0011c0b300a0
:100bcc000040eb00bf0007000042eb008041eb004f
:100bdc000041eb008040eb000040eb00b900070047
:100bec0050002000bd0307000080fa000000060042
:100bfc000000fa000042eb008041eb0012c0b30091
:100c0c0011c0b3000040eb00ae0007000042eb0047
:100c1c008041eb000041eb008040eb000040eb001a
:100c2c00a800070050002000ac0307000080fa0069
:100c3c00000006000200fa00004f78001e40780009
:100c4c000004e0000f0032000042eb008041eb009a
:100c5c000041eb008040eb000040eb0099000700e6
:100c6c0014c0b30013c0b30012c0b30011c0b30062
:100c7c000040eb0093000700500020009703070092
:100c8c000e0037000042eb008041eb000041eb000e
:100c9c008040eb000040eb008a0007000042eb00b4
:100cac008041eb0012c0b30011c0b3000040eb0058
:100cbc008400070050002000880307000080fa0021
:100ccc00000006000a00fa00400798000000eb0044
:100cdc0020079800730037000000eb0030079800e5
:100cec006d0037003e0090000000e00030003a003c
:100cfc002e009000ce009000008040001040780044
:100d0c008000fb00000820000080600000f0a700bd
:100d1c000000ea000000ea004f00de00004f7800ff
:100d2c002e009000ce009000008040001040780013
:100d3c008000fb00000420000080600000f0a70091
:100d4c000000ea000000ea004f00de0010479800a7
:100d5c002e009000ce0090000080400010407800e3
:100d6c008000fb00000220000080600000f0a70063
:100d7c000000ea000000ea004f00de002047980067
:100d8c002e009000ce0090000080400010407800b3
:100d9c000000fb007000600000f0a7000000ea00fb
:100dac000000ea004f00de00304798002f003700ab
:100dbc002e009000ce009000008040001040780083
:100dcc000000fb006800600000f0a7000000ea00d3
:100ddc000000ea004f00de00004f78002e0090006b
:100dec00ce00900000804000104078000000fb0016
:100dfc006400600000f0a7000000ea000000ea00b8
:100e0c004f00de00104798002e009000ce0090009e
:100e1c0000804000104078000000fb006200600081
:100e2c0000f0a7000000ea000000ea004f00de001e
:100e3c00204798002e009000ce00900000804000cb
:100e4c00104078000000fb006100600000f0a7007b
:100e5c000000ea000000ea004f00de003047980076
:100e6c002e0090000000e800200798003e42900001
:100e7c00ae4190001e4190009e40780010c0b3001f
:100e8c001000070050002000140307003e009000e3
:100e9c000000e800300798003e009000e10f500081
:100eac0090ff34002e009000ce0090000080400097
:100ebc00104078000004e00087ff3a000080fa0040
:100ecc00000006000600fa00004f78001147980059
:100edc002247980033479800444798001e80fb0037
:100eec004f00dd00d2338000f1ff2700810061004c
:100efc0001007000d03388001e4090000080fb0081
:100f0c00610060004600dd00d2338000f1fb2f0051
:100f1c008100610001007000d03388002e409000e9
:100f2c000080fb00610060004700dd00d2338000d0
:100f3c00f1f72f008100610001007000d0338800b0
:100f4c003e4090000080fb00610060004800dd0026
:100f5c00d2338000f1ef2f0081006100010070009e
:100f6c00d03388004e4090000080fb006100600090
:100f7c004900dd00d2338000f1df2f0081006100d9
:100f8c0001007000d03388007bc6a8007bc6a90086
:100f9c000080fa00000006000600fa00004f7800fe
:100fac00114798002247980033479800444798000f
:100fbc001e80fb004f00dd00d2338000f1ff2700c4
:100fcc008100610001007000d03388001e40900049
:100fdc000080fb00610060004600dd00d233800021
:100fec00f1fb2f008100610001007000d0338800fc
:100ffc002e4090000080fb00610060004700dd0087
:10100c00d2338000f1f72f008100610001007000e5
:10101c00d03388003e4090000080fb0061006000ef
:10102c004800dd00d2338000f1ef2f008100610019
:10103c0001007000d03388004e4090000080fb000f
:10104c00610060004900dd00d2338000f1df2f0029
:10105c008100610001007000d03388007bc6a800bd
:10106c007bc6a9000080fa00000006000000fa0010
:10107c000028ef00abfe0700602c280011ff0700d2
:10108c00dbfe0700702d28000eff07000040eb0070
:10109c00e8fe07000080fa00000006000000fa00dd
:1010ac0010002000004088009efe0700802e2800c3
:1010bc0004ff0700cefe0700802f280001ff070069
:1010cc000080fa00000006000000fa00200020005a
:1010dc000040880093fe070090302800f9fe0700be
:1010ec00c3fe0700a0312800f6fe07000080fa00be
:1010fc00000006000000fa003000200000408800cc
:10110c0088fe0700b0322800eefe0700b8fe07008c
:10111c00c0332800ebfe07000080fa000000060038
:10112c000000fa0040002000004088007dfe07000f
:10113c00d0342800e3fe0700adfe0700d0352800b0
:10114c00e0fe07000080fa00000006000000fa0034
:10115c00500020000040880072fe0700e036280096
:10116c00d8fe0700a2fe0700f0372800d5fe0700c6
:10117c000080fa00000006000000fa006000200069
:10118c000040880067fe070000392800cdfe0700ec
:10119c0097fe0700203a2800cafe07000080fa00dc
:1011ac00000006000000fa0091fe0700203b28001a
:1011bc00c4fe07008efe0700303c2800c1fe07006d
:1011cc0080bb200045020700b4ff07000080fa0036
:1011dc00000006000000fa0085fe0700203b2800f6
:1011ec00b8fe070082fe0700403d2800b5fe070050
:1011fc0080bb200039020700a8ff07000080fa001e
:10120c00000006000000fa001040800000f0a7006b
:10121c000000ea000000e9004f00de0010408800ea
:10122c00104080000000e0000a0032005ffe070062
:10123c00203b2800a3fe07005cfe0700503e280060
:10124c00a0fe070080bb20002402070093ff0700cc
:10125c000900370055fe0700203b280099fe0700c7
:10126c0052fe0700403f280096fe070080bb20007e
:10127c001a02070089ff07000080fa000000060030
:10128c000000fa0027fe0700404028008dfe0700f2
:10129c0057fe070008003700203b280089fe070096
:1012ac0053fe07005041280086fe0700a00f2000c7
:1012bc000a0207004efe0700204080000000e000fc
:1012cc00f5ff3a0080ff07000080fa0000000600de
:1012dc000000fa0013fe070045fe070060422800dc
:1012ec0078fe0700c05d2000fc0107000dfe070022
:1012fc006042280073fe07003dfe070020432800d3
:10130c0070fe0700c05d2000f401070005fe070019
:10131c00204328006bfe070035fe0700e043280041
:10132c0068fe0700c05d2000ec010700fdfd070012
:10133c00e043280063fe0700c05d2000e7010700c2
:10134c00f8fd0700803e2000e401070069ff07005c
:10135c000080fa00000006000200fa00000f78007e
:10136c001e007800e20f50000e003200e30f500018
:10137c0016003200e10f50001f003a00e9fd070093
:10138c00a04428004ffe070019fe07004045280026
:10139c004cfe0700007d2000d001070055ff070020
:1013ac0016003700dffd07000046280045fe070049
:1013bc000ffe07004045280042fe0700007d20007c
:1013cc00c60107004bff07000c003700d5fd0700d6
:1013dc00a04628003bfe070005fe070040452800fc
:1013ec0038fe0700007d2000bc01070041ff07000c
:1013fc000000000001003700000000000080fa002f
:10140c00000006000000fa00c6fd07004047280057
:10141c002cfe0700c05d2000b001070035ff07005f
:10142c000080fa00000006000000fa00bdfd070075
:10143c000048280023fe0700edfd07001049280096
:10144c0020fe0700409c2000a401070034ff070089
:10145c000080fa00000006000000fa00b1fd070051
:10146c00204a280017fe0700e1fd0700604a28000b
:10147c0014fe0700c05d2000980107003eff070026
:10148c000080fa00000006000000fa00a5fd07002d
:10149c00304b28000bfe0700d5fd0700104c280030
:1014ac0008fe0700803e20008c010700d0fd0700dd
:1014bc00304c280003fe0700803e20008701070007
:1014cc00cbfd0700504c2800fefd0700803e20009d
:1014dc008201070028ff0700950107000080fa0031
:1014ec00000006000200fa00000f780000408000a7
:1014fc00e30f500048003200e30f500007003c009f
:10150c00e10f500020003200e10f500032003c008f
:10151c000000e0000800320091003700e50f500099
:10152c005e003200e50f50004e003500e60f500013
:10153c00710032008a0037001e007800e10f500065
:10154c0002003a00d5fe0700850037001e00780027
:10155c00e20f500002003a00dbfe0700800037006b
:10156c001e007800e30f500002003a00e1fe070075
:10157c007b0037001e007800e40f50006b003a002f
:10158c00e7fe0700760037001e007800e10f5000e0
:10159c0002003a0003ff0700710037001e007800bc
:1015ac00e20f500002003a000aff07006c003700ff
:1015bc001e007800e30f500002003a0011ff0700f4
:1015cc00670037001e007800e40f500059003a0005
:1015dc00a6fe0700620037001e007800e10f5000e5
:1015ec0003003a0010002000204088005c00370007
:1015fc001e007800e20f500002003a000428ef00b1
:10160c00570037001e007800e40f50004b003a00e2
:10161c0096fe0700520037001e007800e10f5000c4
:10162c0002003a002aff0700090037001e0078006c
:10163c00e20f500002003a00c4fe0700040037001d
:10164c001e007800e30f500001003a006dff070008
:10165c001e007800e40f50003a003a0083fe0700a9
:10166c003f0037001e007800e10f500001003a00e7
:10167c00c1fe07001e007800e30f500002003a0084
:10168c0069ff0700360037001e007800e40f500099
:10169c002e003a0075fe0700310037001e0078005e
:1016ac00e10f500003003a00100020002aff070051
:1016bc002b0037001e007800e20f500003003a00a8
:1016cc002000200024ff0700250037001e007800b2
:1016dc00e30f500003003a00300020001eff07000b
:1016ec001f0037001e007800e40f500019003a006c
:1016fc0080fe07001a0037001e007800e10f500032
:10170c0001003a0054ff07001e007800e20f500061
:10171c0001003a005cff07001e007800e40f500047
:10172c000e003a007efe07000d003700000000009e
:10173c000b0037000000000009003700000000001b
:10174c000700370000000000050037000000000013
:10175c00030037000000000001003700000000000b
:10176c000080fa00000006000000fa0005000700e7
:10177c000c000700400007004b0007000080fa0037
:10178c00000006000000fa007a26ef000080eb0053
:10179c00b03388007e26ef006286a9000080fa0034
:1017ac00000006000000fa009823ef009a23ef00d7
:1017bc007646a9007666a800a13d800000fc2f00ab
:1017cc00008060003000b300a03d8800b13e800076
:1017dc0000f82f00008060003000b300b03e88009d
:1017ec008960a90061058000f0ff280080806000fe
:1017fc000000230001007000600588009960a800bb
:10180c0090012000001d880099e3a8009b43a800cc
:10181c00ae23ef00b023ef00b13d800000fc2f00a1
:10182c00008060005000b300b03d8800c13e8000d5
:10183c0000f82f00008060005000b300c03e88000c
:10184c008bc0a900b1058000f08f2f008080600054
:10185c000030200001007000b00588009bc0a8007b
:10186c0090012000b01d8800afe3a800b143a80090
:10187c000080fa00000006000000fa0077e6a900dc
:10188c0077c6a90076c6a90076e6a9007706a90056
:10189c007726a90052fc0700a2fc0700f3fd070005
:1018ac000080fa00000006000000fa0077a6a800ed
:1018bc007786a8007766a8007746a8008346a8001c
:1018cc008366a8008386a80083a6a8008746a80084
:1018dc008766a8008786a80087a6a8005fe6a800f0
:1018ec008426ef008a60a90081058000f0ff2800a3
:1018fc0080806000000023000100700080058800db
:10190c009a60a8000080fa00000006000200fa00ad
:10191c00004f78001e00fb00e01c88000080fa00dd
:10192c00000006000400fa00100798000000eb000d
:10193c00000f78000d00370000000000d11c800063
:10194c0000102000008060000000e000fbff32006f
:10195c001e0078009e00900000804000104078002f
:10196c000000fb00e01c88001e0fe8001e00780041
:10197c009e00900000804000104078000004e000c1
:10198c00edff3a000080fa00000006000200fa00a9
:10199c00004f78001e00fb00901d88000080fa00ac
:1019ac00000006000400fa00100798000000eb008d
:1019bc00000f78000d00370000000000811d800032
:1019cc0000102000008060000000e000fbff3200ef
:1019dc001e0078009e0090000080400010407800af
:1019ec000000fb00901d88001e0fe8001e00780010
:1019fc009e00900000804000104078000004e00041
:101a0c00edff3a000080fa00000006000800fa0022
:101a1c0055ff07000000eb00000f78000040eb00c2
:101a2c0020479800408320008040eb00014878005c
:101a3c000000eb004040880001003700000000006f
:101a4c00a00f2000250007003033800070006000dc
:101a5c0000f0a7000000ea000000e9004f00de00e3
:101a6c00004078000080fb00610060004400dd0055
:101a7c0032338000f1fe2f00810061000100700004
:101a8c0030338800204080000000e000010032006c
:101a9c00fbfd070040832000104078000004e000ac
:101aac00e6ff32001e007800004078000043b000d2
:101abc00204798000040eb003047980019fc0700c5
:101acc000e80e8007ffc0700408320008040eb0084
:101adc00014878001e0fe800d9ff37000600fa0015
:101aec00200798002e00900000004000000f7800a6
:101afc000a003700c01120001007980003003700bf
:101b0c001e0090000000e900100798001e009000d5
:101b1c000000e000faff3c001e0fe9001e007800f8
:101b2c000000e000f3ff3c000080fa00000006001b
:101b3c000000fa00804c28009aff0700a04c2800f7
:101b4c0098ff0700d04c280096ff0700409c20000f
:101b5c00e2ff0700004d280092ff0700f1fb070091
:101b6c00204e280057fc07000080fa0000000600f9
:020000040000fa
:101b7c00060800000200000082000000e8030000dc
:101b8c0000080000060000008000000008080000ab
:0c1b9c002e00000080000000000000008f
:020000040000fa
:020000040005f5
:045e0000ffff0000a0
:020000040000fa
:020000040005f5
:045e2000ffffff0081
:020000040000fa
:020000040005f5
:045e3000f8ffff0078
:020000040000fa
:020000040005f5
:045e3800b7ffff00b1
:020000040000fa
:020000040005f5
:045e40009fffff00c1
:020000040000fa
:020000040005f5
:045e4800ffffff0059
:020000040000fa
:020000040005f5
:045e5000dfffff0071
:020000040000fa
:020000040005f5
:045e5800ffffff0049
:00000001FF
