:020000040000fa
:080000000001040000000000f3
:020000040000fa
:04000800c202000030
:020000040000fa
:04000c00c20200002c
:020000040000fa
:04001000c202000028
:020000040000fa
:04001400c202000024
:020000040000fa
:04001800c202000020
:020000040000fa
:04001c00c20200001c
:020000040000fa
:04002000c202000018
:020000040000fa
:04002400c202000014
:020000040000fa
:04002800c202000010
:020000040000fa
:04002c00c20200000c
:020000040000fa
:04003000c202000008
:020000040000fa
:04003400c202000004
:020000040000fa
:04003800c202000000
:020000040000fa
:04003c00c2020000fc
:020000040000fa
:04004000c2020000f8
:020000040000fa
:04004400c2020000f4
:020000040000fa
:04004800c2020000f0
:020000040000fa
:04004c00c2020000ec
:020000040000fa
:04005000c2020000e8
:020000040000fa
:0400540004020000a2
:020000040000fa
:04005800c2020000e0
:020000040000fa
:04005c00c2020000dc
:020000040000fa
:04006000c2020000d8
:020000040000fa
:04006400c2020000d4
:020000040000fa
:04006800c2020000d0
:020000040000fa
:04006c00c2020000cc
:020000040000fa
:04007000c2020000c8
:020000040000fa
:040074006602000020
:020000040000fa
:04007800c2020000c0
:020000040000fa
:04007c00c2020000bc
:020000040000fa
:04008000c2020000b8
:020000040000fa
:04008400c2020000b4
:020000040000fa
:04008800c2020000b0
:020000040000fa
:04008c00c2020000ac
:020000040000fa
:04009000c2020000a8
:020000040000fa
:04009400c2020000a4
:020000040000fa
:04009800c2020000a0
:020000040000fa
:04009c00c20200009c
:020000040000fa
:0400a0001802000042
:020000040000fa
:0400a400c202000094
:020000040000fa
:0400a800c202000090
:020000040000fa
:0400ac00c20200008c
:020000040000fa
:0400b000c202000088
:020000040000fa
:0400b400c202000084
:020000040000fa
:0400b800c202000080
:020000040000fa
:0400bc00c20200007c
:020000040000fa
:0400c000c202000078
:020000040000fa
:0400c400c202000074
:020000040000fa
:0400c800c202000070
:020000040000fa
:0400cc00c20200006c
:020000040000fa
:0400d000c202000068
:020000040000fa
:0400d400c202000064
:020000040000fa
:0400d800c202000060
:020000040000fa
:0400dc00c20200005c
:020000040000fa
:0400e000c202000058
:020000040000fa
:0400e400c202000054
:020000040000fa
:0400e800c202000050
:020000040000fa
:0400ec00c20200004c
:020000040000fa
:0400f000c202000048
:020000040000fa
:0400f400c202000044
:020000040000fa
:0400f800c202000040
:020000040000fa
:0400fc00c20200003c
:020000040000fa
:04010000c202000037
:020000040000fa
:04010400c202000033
:020000040000fa
:04010800c20200002f
:020000040000fa
:04010c00c20200002b
:020000040000fa
:04011000c202000027
:020000040000fa
:04011400c202000023
:020000040000fa
:04011800c20200001f
:020000040000fa
:04011c00c20200001b
:020000040000fa
:04012000c202000017
:020000040000fa
:04012400c202000013
:020000040000fa
:04012800c20200000f
:020000040000fa
:04012c00c20200000b
:020000040000fa
:04013000c202000007
:020000040000fa
:04013400c202000003
:020000040000fa
:04013800c2020000ff
:020000040000fa
:04013c00c2020000fb
:020000040000fa
:04014000c2020000f7
:020000040000fa
:04014400c2020000f3
:020000040000fa
:04014800c2020000ef
:020000040000fa
:04014c00c2020000eb
:020000040000fa
:04015000c2020000e7
:020000040000fa
:04015400c2020000e3
:020000040000fa
:04015800c2020000df
:020000040000fa
:04015c00c2020000db
:020000040000fa
:04016000c2020000d7
:020000040000fa
:04016400c2020000d3
:020000040000fa
:04016800c2020000cf
:020000040000fa
:04016c00c2020000cb
:020000040000fa
:04017000c2020000c7
:020000040000fa
:04017400c2020000c3
:020000040000fa
:04017800c2020000bf
:020000040000fa
:04017c00c2020000bb
:020000040000fa
:04018000c2020000b7
:020000040000fa
:04018400c2020000b3
:020000040000fa
:04018800c2020000af
:020000040000fa
:04018c00c2020000ab
:020000040000fa
:04019000c2020000a7
:020000040000fa
:04019400c2020000a3
:020000040000fa
:04019800c20200009f
:020000040000fa
:04019c00c20200009b
:020000040000fa
:0401a000c202000097
:020000040000fa
:0401a400c202000093
:020000040000fa
:0401a800c20200008f
:020000040000fa
:0401ac00c20200008b
:020000040000fa
:0401b000c202000087
:020000040000fa
:0401b400c202000083
:020000040000fa
:0401b800c20200007f
:020000040000fa
:0401bc00c20200007b
:020000040000fa
:0401c000c202000077
:020000040000fa
:0401c400c202000073
:020000040000fa
:0401c800c20200006f
:020000040000fa
:0401cc00c20200006b
:020000040000fa
:0401d000c202000067
:020000040000fa
:0401d400c202000063
:020000040000fa
:0401d800c20200005f
:020000040000fa
:0401dc00c20200005b
:020000040000fa
:0401e000c202000057
:020000040000fa
:0401e400c202000053
:020000040000fa
:0401e800c20200004f
:020000040000fa
:0401ec00c20200004b
:020000040000fa
:0401f000c202000047
:020000040000fa
:0401f400c202000043
:020000040000fa
:0401f800c20200003f
:020000040000fa
:0401fc00c20200003b
:020000040000fa
:100200004f1f21000e7f24000e0188000000000017
:10021000000020000000e000020032000001200089
:100220002002880014000700f90007000000e00029
:1002300003003a00200921000100200002003700dd
:100240000000200001002000810f7000010032003a
:1002500014000700000020000000e000020032004f
:100260000000020000000000ea0f02000000000091
:100270000040da000000fe004440a9008022200077
:100280000000e00003003200002020009001880000
:100290004440a800000006008a1f78008b1f7800e9
:1002a00000000600a1028800800478000000eb0036
:1002b0001f003700e284440054a0b4009905ba003e
:1002c000e284440054a0b4009906ba00e2844400d9
:1002d00054a0b4000006eb00476fde00fd07b2003b
:1002e000ae018800636ce10003003a00eaff0700fa
:1002f0000000eb000e003700606ce10008003a00df
:10030000004deb000a05e800020039003420ec0043
:100310000af0a0008b05e900f9ff3e000400370059
:100320006168e100010032000086eb000b0007006d
:1003300019c7ba001905ba000e04e00003003a001c
:100340000a00e000dbff3a0000000600fe07b200f2
:10035000ae0288008a047800f5ff37000cd0a300b5
:10036000e20f4d001c00390089027800354dba00bb
:100370000a05e800020039003420ec000af0a00071
:100380008b05e9000f003200254dba000a05e80090
:10039000020039003420ec000af0a0008b05e900cf
:1003a000080032000c00e0000600320015cdba0053
:1003b0000a05e800020039003420ec000af0a00031
:1003c0008b05e9008984e80054a0b4000b00e0002c
:1003d000e2ff3a00000006009902ba00055d7800cd
:1003e0008b05e900f7ff3200c82ade00055d7800c2
:1003f0008b05e900f3ff32000c00e000f1ff320052
:1004000019ddba00eeff3700801f78000200fa0005
:10041000f01c8000004f78001e00fb00e01c8800ec
:100420008960a9000080fa004f00780000400600b3
:100430003600f800809fbe00829fbe00849fbe00f1
:10044000869fbe000200fa00a01d8000004f7800c9
:1004500040408000a1de2000810040009e487800de
:100460000000e80040408800e0c3b3009e407800f0
:1004700080cf500003003a002000200089050700cb
:100480000a0037001e407800ed4f500007003a0088
:10049000b01e2100104078000004a2000004e0001b
:1004a00002003200a0de20009d0507008bc0a900dd
:1004b0000080fa004f03be004f02be004f01be0095
:1004c0004f00be003600f900004006003600f8007c
:1004d000809fbe00829fbe00849fbe00869fbe009c
:1004e0000000fa002134800000002200008060003b
:1004f0000000e0000300320010002000c5040700e7
:1005000017003700213480000000210000806000c7
:100510000000e0000300320020002000bd040700be
:100520000f00370021348000008020000080600030
:100530000000e0000300320030002000b504070096
:100540000700370021348000004020000080600058
:100550000000e0000200320040002000ad0407006f
:100560008426ef008a60a9000080fa004f03be00d5
:100570004f02be004f01be004f00be003600f90022
:10058000004006000040da000000fe00889fbe0028
:1005900080047800908f80000000e00004003a00a2
:1005a0000e0007000084eb000000e00008003500aa
:1005b000988f80000900e000050032000900440027
:1005c000060007000000e00001003d000084eb0091
:1005d000080078004f04be0000000600800078008c
:1005e0000100e00003003a0000002000908f880026
:1005f000000005000080eb0002002000828f500008
:1006000002003e00918f88000000eb000000060011
:1006100000000500889fbe0000047800618f800004
:100620000100e00002003200010078000d003700f8
:10063000718f8000e01e210004003700910f5400ec
:10064000250036000180e800910090000100e000e4
:10065000faff3a0010003700920f54001e003600d7
:100660000280e800100178000200e000faff3a0082
:1006700011017800718f8000e01e21000400370016
:10068000910f5400140036000180e80091009000a2
:10069000828f5000faff3a00898f8000888f5400c3
:1006a0000100310088047800090078004c00070040
:1006b0000000e00004003a00888f5400050032007a
:1006c0008904d100f5ff3700091878004e000700b3
:1006d000d2ff37000000eb004f04be000000060010
:1006e000881f7800630440000800a1008000eb0030
:1006f000800f540021003600e30f540001003e003b
:100700004800200008007800c2ff07008000eb00ce
:100710000000e0001900320090007800910178009c
:1007200064815100880f51000300310011019000d5
:1007300002087800070037000881400002087800ae
:100740009101900013019800100178001109140024
:1007500088087800100178000000eb000200e0003b
:1007600004003200920190000300e000010032001a
:100770000280e800608f88008180e8000100780036
:100780004f04780000000600020037000204e00079
:100790000b003200810178000002780030417800bf
:1007a000b14f5100f9ff32001000200014427800d0
:1007b000934f5200030031000080eb000000060060
:1007c0000000eb000000060000017800b141780055
:1007d000035978000304e000fcff3a000000060023
:1007e000800078000000eb000100e000050034000c
:1007f0000100780065ff0700e10f400001003a00aa
:100800000000eb00000006000000e0002f003200b6
:10081000c0017800e38f51002c0036000308a300cc
:100820002a003a00718f80000100e00002003200cf
:10083000810f50000400310011009800708f880073
:100840001600370082007800110190000200e000dd
:1008500002003200800f5100faff390011027800c7
:1008600084824000850f500018003900808f5200ac
:1008700003003a00830842000100780007003700b7
:100880000200e0000300320083014000830f5100aa
:100890000e0039001200980090009800900090001f
:1008a0000100e0000900320010014000828f50007a
:1008b00006003a00c21e21000009eb00100178007a
:1008c00011084100910090001100980000000600fe
:020000040000fa
:1008d000312e000057610000746500007220000096
:1008e00020200000322e00004461000074610000ee
:1008f000003300002e570000694600006920000008
:1009000020200000203400002e4d00006f720000f7
:1009100065000000312e00004f4e00002020000036
:100920002020000020200000322e00004f46000052
:1009300046000000332e000041750000746f000077
:100940002020000020200000342e00004261000022
:10095000636b0000003100002e530000686f000040
:100960007720000020200000203200002e480000e8
:100970006964000065000000332e00004e2f000067
:10098000412000002020000020200000342e000024
:1009900042610000636b0000003100002e53000034
:1009a000686f000077200000322e0000436f0000c7
:1009b0006e6e00006563000074000000332e0000be
:1009c000436f00006e6e00003f20000020200000fa
:1009d000342e000042610000636b00000031000013
:1009e0002e53000065740000757000002020000088
:1009f000203200002e4e00002f4100000033000086
:100a00002e4900006e6600006f20000020200000cc
:100a1000203400002e420000616300006b000000e3
:100a2000312e00004e6500007431000020200000cf
:100a300020200000322e00004e65000074320000bd
:100a4000003300002e4e00006574000033200000cb
:100a500020200000203400002e42000061630000ce
:100a60006b000000312e0000566900006577000021
:100a7000203200002e4300006f6e00006e65000003
:100a800063740000003300002e4e00002f41000070
:100a90002020000020200000342e000042610000d1
:100aa000636b0000002000002020000020200000d8
:100ab0002020000020200000202000002020000036
:100ac0002020000020000000576100007465000035
:100ad000726900006e670000204500006e61000032
:100ae000626c000065640000005700006174000043
:100af000657200002073000068750000742000001b
:100b0000646f0000776e0000210000004175000056
:100b1000746f00002d7700006174000065720000a2
:100b20003a2000004f4e00000041000075740000a4
:100b30006f2d00007761000074650000723a0000bc
:100b4000204f00004646000000540000656d000084
:100b5000702000004c750000782000004d6f0000f0
:100b600069730000747500007200000031300000ed
:100b7000302e0000304600002031000030320000ee
:100b8000332000003130000030250000003100002b
:100b90002e2000004e650000747700006f72000088
:100ba0006b310000003200002e2000004e65000076
:100bb000747700006f7200006b3200000033000099
:100bc0002e2000004e650000747700006f72000058
:100bd0006b330000004e000065740000776f00006a
:100be000726b00002031000000730000656c000093
:100bf0006563000074650000642e00002e2e000066
:100c0000004e000065740000776f0000726b0000fa
:100c100020320000004e000065740000776f000075
:100c2000726b000020330000004300006f6d000075
:100c3000696e000067200000536f00006f6e0000b7
:100c4000003100003d3e0000546f000070200000a5
:100c5000323d00003e5400006f7000002d4d00003a
:100c600064000000333d00003e4200006f7400004d
:100c70002d4d000064200000343d00003e42000085
:100c80006f740000004e00002f410000003800008b
:100c9000303100004631000032420000353800009b
:100ca0004432000046000000436f00006e6e0000fa
:100cb00065630000746900006e6700002069000031
:100cc0006e00000031000000240000002424000019
:100cd000004600000d000000432c0000302c0000f6
:100ce000383000003146000031320000423500004b
:100cf00038440000324600000d000000383000008b
:100d00003146000031320000423500003844000016
:100d100032460000000000000d0a00000000000044
:020000040000fa
:100d20000000fa00f0002000db04070014c0b3004c
:100d300013c0b3000041eb008040eb000040eb002b
:100d400030010700a0002000d304070014c0b30046
:100d500013c0b3000041eb008040eb000040eb000b
:100d60002801070050002000cb04070014c0b30086
:100d700013c0b3000041eb008040eb000040eb00eb
:100d800020010700a0002000c30407000042eb0080
:100d900013c0b3000041eb008040eb000040eb00cb
:100da0001801070050002000bb0407000042eb00c0
:100db00013c0b3000041eb008040eb000040eb00ab
:100dc00010010700a0002000b30407000042eb0060
:100dd0008041eb000041eb0011c0b3000040eb008c
:100de0000801070050002000ab0407000042eb00a0
:100df0008041eb000041eb008040eb000040eb0045
:100e00000001070014c0b30013c0b30012c0b30048
:100e100011c0b3000040eb00fa00070050002000b2
:100e20009d0407000042eb008041eb000041eb0015
:100e30008040eb000040eb00f20007000042eb00b6
:100e400013c0b30012c0b3008040eb000040eb00c1
:100e5000ec000700500020008f0407000080fa001b
:100e6000000006000000fa000042eb008041eb00a9
:100e70000041eb008040eb000040eb00e100070088
:100e800014c0b3008041eb000041eb008040eb0058
:100e90000040eb00db000700500020007e0407004c
:100ea0000080fa00000006000000fa000042eb009b
:100eb0008041eb000041eb008040eb000040eb0084
:100ec000d00007000042eb0013c0b3000041eb006c
:100ed0008040eb000040eb00ca00070050002000fb
:100ee0006d0407000080fa00000006000000fa0010
:100ef0000042eb008041eb000041eb0011c0b30069
:100f00000040eb00bf0007000042eb008041eb0017
:100f10000041eb008040eb000040eb00b90007000f
:100f2000500020005c0407000080fa00000006006a
:100f30000000fa000042eb008041eb0012c0b30059
:100f400011c0b3000040eb00ae0007000042eb0010
:100f50008041eb000041eb008040eb000040eb00e3
:100f6000a8000700500020004b0407000080fa0092
:100f7000000006000200fa00004f78001e407800d2
:100f80000004e0000f0032000042eb008041eb0063
:100f90000041eb008040eb000040eb0099000700af
:100fa00014c0b30013c0b30012c0b30011c0b3002b
:100fb0000040eb00930007005000200036040700bb
:100fc0000e0037000042eb008041eb000041eb00d7
:100fd0008040eb000040eb008a0007000042eb007d
:100fe0008041eb0012c0b30011c0b3000040eb0021
:100ff0008400070050002000270407000080fa004a
:10100000000006000a00fa00400798000000eb000c
:1010100020079800730037000000eb0030079800ad
:101020006d0037003e0090000000e00030003a0004
:101030002e009000ce00900000804000104078000c
:101040008000fb00000820000080600000f0a70086
:101050000000ea000000ea004f00de00004f7800c8
:101060002e009000ce0090000080400010407800dc
:101070008000fb00000420000080600000f0a7005a
:101080000000ea000000ea004f00de001047980070
:101090002e009000ce0090000080400010407800ac
:1010a0008000fb00000220000080600000f0a7002c
:1010b0000000ea000000ea004f00de002047980030
:1010c0002e009000ce00900000804000104078007c
:1010d0000000fb007000600000f0a7000000ea00c4
:1010e0000000ea004f00de00304798002f00370074
:1010f0002e009000ce00900000804000104078004c
:101100000000fb006800600000f0a7000000ea009b
:101110000000ea004f00de00004f78002e00900033
:10112000ce00900000804000104078000000fb00de
:101130006400600000f0a7000000ea000000ea0080
:101140004f00de00104798002e009000ce00900067
:1011500000804000104078000000fb00620060004a
:1011600000f0a7000000ea000000ea004f00de00e7
:10117000204798002e009000ce0090000080400094
:10118000104078000000fb006100600000f0a70044
:101190000000ea000000ea004f00de00304798003f
:1011a0002e0090000000e800200798003e429000ca
:1011b000ae4190001e4190009e40780010c0b300e8
:1011c0001000070050002000b30307003e0090000d
:1011d0000000e800300798003e009000e10f50004a
:1011e00090ff34002e009000ce0090000080400060
:1011f000104078000004e00087ff3a000080fa0009
:10120000000006000600fa00004f78001147980021
:101210002247980033479800444798001e80fb00ff
:101220004f00dd00d2338000f1ff27008100610014
:1012300001007000d03388001e4090000080fb0049
:10124000610060004600dd00d2338000f1fb2f001a
:101250008100610001007000d03388002e409000b2
:101260000080fb00610060004700dd00d233800099
:10127000f1f72f008100610001007000d033880079
:101280003e4090000080fb00610060004800dd00ef
:10129000d2338000f1ef2f00810061000100700067
:1012a000d03388004e4090000080fb006100600059
:1012b0004900dd00d2338000f1df2f0081006100a2
:1012c00001007000d03388007bc6a8007bc6a9004f
:1012d0000080fa00000006000600fa00004f7800c7
:1012e00011479800224798003347980044479800d8
:1012f0001e80fb004f00dd00d2338000f1ff27008d
:101300008100610001007000d03388001e40900011
:101310000080fb00610060004600dd00d2338000e9
:10132000f1fb2f008100610001007000d0338800c4
:101330002e4090000080fb00610060004700dd004f
:10134000d2338000f1f72f008100610001007000ae
:10135000d03388003e4090000080fb0061006000b8
:101360004800dd00d2338000f1ef2f0081006100e2
:1013700001007000d03388004e4090000080fb00d8
:10138000610060004900dd00d2338000f1df2f00f2
:101390008100610001007000d03388007bc6a80086
:1013a0007bc6a9000080fa00000006000000fa00d9
:1013b0000028ef00abfe07008046280011ff070061
:1013c000dbfe0700904728000eff07000040eb00ff
:1013d000e8fe07000080fa00000006000000fa00a6
:1013e00010002000004088009efe0700a048280052
:1013f00004ff0700cefe0700a049280001ff0700f8
:101400000080fa00000006000000fa002000200022
:101410000040880093fe0700b04a2800f9fe07004c
:10142000c3fe0700c04b2800f6fe07000080fa004c
:10143000000006000000fa00300020000040880094
:1014400088fe0700d04c2800eefe0700b8fe07001b
:10145000e04d2800ebfe07000080fa0000000600c7
:101460000000fa0040002000004088007dfe0700d8
:10147000f04e2800e3fe0700adfe0700f04f280005
:10148000e0fe07000080fa00000006000000fa00fd
:10149000500020000040880072fe07000051280024
:1014a000d8fe0700a2fe070010522800d5fe070054
:1014b0000080fa00000006000000fa006000200032
:1014c0000040880067fe070020532800cdfe07007b
:1014d00097fe070030542800cafe07000080fa007b
:1014e000000006000000fa0091fe070030552800b9
:1014f000c4fe07008efe070040562800c1fe07000c
:1015000080bb2000e4020700b4ff07000080fa005f
:10151000000006000000fa0085fe07003055280094
:10152000b8fe070082fe070050572800b5fe0700ee
:1015300080bb2000d8020700a8ff07000080fa0047
:10154000000006000000fa001040800000f0a70034
:101550000000ea000000e9004f00de0010408800b3
:10156000104080000000e0000a0032005ffe07002b
:1015700030552800a3fe07005cfe070060582800d5
:10158000a0fe070080bb2000c302070093ff0700f6
:101590000900370055fe07003055280099fe070066
:1015a00052fe07005059280096fe070080bb20001d
:1015b000b902070089ff07000080fa00000006005a
:1015c0000000fa0027fe0700505a28008dfe070091
:1015d00057fe0700080037003055280089fe070035
:1015e00053fe0700605b280086fe0700a00f200066
:1015f000a90207004efe070020408000e10f5000c6
:10160000f5ff3200204080000000e00002003a00b8
:101610007dff07000100370064ff07000080fa002b
:10162000000006000000fa000efe070040fe070062
:10163000705c280073fe0700c05d20009602070062
:1016400008fe0700705c28006efe070038fe0700e9
:10165000305d28006bfe0700c05d20008e02070091
:1016600000fe0700305d280066fe070030fe070020
:10167000f05d280063fe0700c05d200086020700c1
:10168000f8fd0700f05d28005efe0700c05d200049
:1016900081020700f3fd0700803e20007e02070064
:1016a00064ff07000080fa00000006000200fa0054
:1016b000000f78001e007800e20f50000e0032008c
:1016c000e30f500016003200e10f50001f003a00f7
:1016d000e4fd0700b05e28004afe070014fe070084
:1016e000505f280047fe0700007d20006a020700c7
:1016f00050ff070016003700dafd070010602800d1
:1017000040fe07000afe0700505f28003dfe07006c
:10171000007d20006002070046ff07000c00370034
:10172000d0fd0700b060280036fe070000fe07006d
:10173000505f280033fe0700007d2000560207009e
:101740003cff07000000000001003700000000001f
:101750000080fa00000006000000fa00c1fd07004a
:101760005061280027fe0700c05d20004a020700e4
:1017700030ff07000080fa00000006000000fa00b9
:10178000b8fd0700106228001efe0700e8fd0700f4
:10179000206328001bfe0700409c20003e0207003b
:1017a0002fff07000080fa00000006000000fa008a
:1017b000acfd07003064280012fe0700dcfd0700c6
:1017c000706428000ffe0700c05d20003202070091
:1017d00039ff07000080fa00000006000000fa0050
:1017e000a0fd07004065280006fe0700d0fd0700a9
:1017f0002066280003fe0700803e20002602070026
:101800002dff070010002000a60007000080fa004e
:10181000000006000200fa00000f7800004080007f
:10182000e30f500049003200e30f500007003c0076
:10183000e10f500020003200e10f500032003c0068
:101840000000e0000800320094003700e50f50006f
:101850005f003200e50f50004f003500e60f5000ea
:10186000720032008d0037001e007800e10f50003a
:1018700002003a00d9fe0700880037001e007800f9
:10188000e20f500002003a00dffe0700830037003d
:101890001e007800e30f500002003a00e5fe07004a
:1018a0007e0037001e007800e40f50006e003a0002
:1018b000ebfe0700790037001e007800e10f5000b2
:1018c00002003a0007ff0700740037001e0078008e
:1018d000e20f500002003a000eff07006f003700d1
:1018e0001e007800e30f500002003a0015ff0700c9
:1018f0006a0037001e007800e40f50005c003a00d8
:10190000aafe0700650037001e007800e10f5000b6
:1019100003003a0010002000204088005f003700dc
:101920001e007800e20f500002003a000428ef0089
:101930005a0037001e007800e40f50004e003a00b5
:101940002000200020408800540037001e0078004e
:10195000e10f500002003a0032ff07000900370093
:101960001e007800e20f500002003a00c7fe070098
:10197000040037001e007800e30f500001003a0019
:1019800075ff07001e007800e40f50003c003a008d
:1019900086fe0700410037001e007800e10f50006e
:1019a00001003a00c4fe07001e007800e30f50005b
:1019b00002003a0071ff0700380037001e0078006f
:1019c000e40f500030003a0078fe07003300370083
:1019d0001e007800e10f500003003a0010002000c4
:1019e00032ff07002d0037001e007800e20f500084
:1019f00003003a00200020002cff070027003700da
:101a00001e007800e30f500003003a003000200071
:101a100026ff0700210037001e007800e40f500069
:101a20001b003a0083fe07001c0037001e007800f0
:101a3000e10f500002003a005cff0700170037007a
:101a40001e007800e20f500002003a0063ff07001a
:101a5000120037001e007800e40f50000e003a001c
:101a60007ffe07000d003700000000000b0037006c
:101a700000000000090037000000000007003700e8
:101a800000000000050037000000000003003700e0
:101a90000000000001003700000000000080fa0094
:101aa000000006000200fa00000f78001e00780017
:101ab000e10f500007003a00406628002b010700a4
:101ac000c00d200074010700606628002701070090
:101ad000110037001e007800e20f500003003a00aa
:101ae00090662800210107000b0037001e007800d7
:101af000e30f500008003a00b01e210011c0b300ef
:101b000001487800c066280018010700a0de200008
:101b10008040eb00014878000080fa0000000600d9
:101b20006c00fa00503798000000eb00000f7800be
:101b30000000eb0010079800010037001e0fe800be
:101b40001e007800de3090000080400010407800d9
:101b50000004e000410032001e007800de309000fa
:101b6000008040009040780050c2b30080cf500009
:101b7000f2ff3a003a0037000000eb00200798001f
:101b8000010037001e0fe8001e007800de309000d4
:101b9000008040009040780050c2b30080cf5000d9
:101ba000f8ff32000c0037001e007800de30900095
:101bb0000080400090407800660147002e009000b1
:101bc00000004100014878002e0090000000e8006d
:101bd000200798001e0fe8001e007800de309000fd
:101be000008040009040780050c2b30080cf500089
:101bf000060032001e007800de30900000804000b9
:101c0000104078000004e000e7ff3a00e6004700db
:101c10002e009000008040008040eb0001487800da
:101c20002e0090000000e0000d003200e280200055
:101c30009e009000400620000088b9000000780057
:101c400000004100e6004700dffa07001e00900098
:101c50000000e800100798000100370000000000b5
:101c60001e007800de3090000080400010407800b8
:101c70000004e000c0ff3a000f003700e2802000bf
:101c8000ae009000400620000088b90000007800f7
:101c900000004100e1672800bbfa07000000e000f7
:101ca00002003a00300020007eff07002e00900066
:101cb0000000e80020079800ae00900040062000d9
:101cc0000088b90000007800e60040008080200015
:101cd00000804000104078000004e000e7ff3a0078
:101ce0000080fa00000006000000fa00050007006e
:101cf0000c000700500007005d0007000080fa009c
:101d0000000006000000fa007a26ef000080eb00d9
:101d1000b03388007e26ef006286a9000080fa00ba
:101d2000000006000000fa009823ef009a23ef005d
:101d30007666a9007646a800a13d800000fc2f0031
:101d4000008060000010a000a03d8800b13e80002f
:101d5000f00f28008080600000302000010070003b
:101d6000b03e88008960a90061058000f0ff28006e
:101d70008080600000002300010070006005880082
:101d80009960a80090012000001d880099e3a80038
:101d90009b43a800a01e21008040eb000148780072
:101da000b01e21008040eb00014878000000eb00ed
:101db000604088000000eb0040408800a0de20006a
:101dc0008040eb0001487800ae23ef00b023ef0025
:101dd0007686a90076a6a800b13d800000fc2f0001
:101de000008060005000b300b03d8800c13e80001c
:101df00000f82f00008060005000b300c03e880053
:101e00008bc0a900b1058000f08f2f00808060009a
:101e10000030200001007000b00588009bc0a800c1
:101e200090012000b01d8800afe3a800b143a800d6
:101e30000080fa00000006000000fa0077e6a90022
:101e400077c6a90076c6a90076e6a9007706a9009c
:101e50007726a900b2fb070002fc070010c0b30000
:101e600044fc070051fd07000080fa000000060056
:101e70000000fa0077a6a8007786a8007766a80079
:101e80007746a8008346a8008366a8008386a8003a
:101e900083a6a8008746a8008766a8008786a800b2
:101ea00087a6a8005fe6a8008426ef008a60a90044
:101eb00081058000f0ff2800808060000000230082
:101ec00001007000800588009a60a8000080fa0078
:101ed000000006000200fa00004f78001e00fb0020
:101ee000e01c88000080fa00000006000400fa00f0
:101ef000100798000000eb00000f78000d0037007d
:101f000000000000d11c8000001020000080600054
:101f10000000e000fbff32001e0078009e009000f1
:101f200000804000104078000000fb00e01c8800aa
:101f30001e0fe8001e0078009e0090000080400008
:101f4000104078000004e000edff3a000080fa0045
:101f5000000006000200fa00004f78001e00fb009f
:101f6000901d88000080fa00000006000400fa00be
:101f7000100798000000eb00000f78000d003700fc
:101f800000000000811d8000001020000080600023
:101f90000000e000fbff32001e0078009e00900071
:101fa00000804000104078000000fb00901d880079
:101fb0001e0fe8001e0078009e0090000080400088
:101fc000104078000004e000edff3a000080fa00c5
:101fd000000006000200fa0043ff0700803e2000d8
:101fe0002d000700303380007000600000f0a70073
:101ff0000000ea000000e9004f00de000040780029
:102000000080fb00610060004400dd00323380008e
:10201000f1fe2f0081006100010070003033880064
:1020200020408000e10f500001003a0064fd0700ed
:102030000000eb00000f780008003700e28020006d
:102040009e007800400620000088b900000078005b
:1020500000004100a5ff07001e0fe8009e00780069
:10206000400620000088b90000007800e60040002b
:102070008080200000804000104078000004e000d4
:10208000eeff3a00c068280098ff0700c0682800eb
:1020900096ff0700d1ff37000600fa0020079800de
:1020a0002e00900000004000000f78000a0037006a
:1020b000c011200010079800030037001e00900098
:1020c0000000e900100798001e0090000000e000ea
:1020d000faff3c001e0fe9001e0078000000e0003f
:1020e000f3ff3c000080fa00000006000400fa0044
:1020f000204798002000200079f90700000f7800a1
:102100001e007800ae409000014878001e00e800f4
:102110008040eb00014878001e0078000080fa0043
:0421200000000600b5
:020000040000fa
:10212400060800000200000082000000e80300002e
:1021340000080000060000008000000008080000fd
:10214400e409000080000000f0110000020000001b
:102154008200000004000000ec11000004000000f4
:1021640080000000f2110000020000008000000066
:042174000000000067
:020000040000fa
:020000040005f5
:045e0000ffff0000a0
:020000040000fa
:020000040005f5
:045e2000ffffff0081
:020000040000fa
:020000040005f5
:045e3000f8ffff0078
:020000040000fa
:020000040005f5
:045e3800b7ffff00b1
:020000040000fa
:020000040005f5
:045e40009fffff00c1
:020000040000fa
:020000040005f5
:045e4800ffffff0059
:020000040000fa
:020000040005f5
:045e5000dfffff0071
:020000040000fa
:020000040005f5
:045e5800ffffff0049
:00000001FF
